:020000040007F3
:10B000001054002059B5070061B5070063B507006B
:10B0100065B5070067B5070069B5070000000000C7
:10B0200000000000000000000000000015B4070050
:10B0300000000000000000006DB507006FB50700BC
:10B0400071B5070071B5070071B5070071B507004C
:10B0500071B5070071B5070071B5070071B507003C
:10B0600071B5070071B5070071B5070071B507002C
:10B0700071B5070071B5070071B5070071B507001C
:10B0800071B50700C5B6070071B5070071B50700B7
:10B09000E9B6070071B507003DB7070071B50700B5
:10B0A00071B5070071B5070071B5070071B50700EC
:10B0B00071B5070071B50700000000000000000036
:10B0C00071B5070071B5070071B5070071B50700CC
:10B0D00071B5070071B50700000000000000000016
:10B0E0000000000000000000000000000000000060
:10B0F0000000000000000000000000000000000050
:10B10000000000000000000000000000000000003F
:10B11000000000000000000000000000000000002F
:10B40000DFF80CD000F0ECF80048004711D9070035
:10B41000105400206FF00200704502D1EFF3098153
:10B4200001E0EFF30881886902380078004A10478C
:10B4300005B60700401E00BF00BF00BF00BF00BF31
:10B4400000BF00BF00BF00BF00BF00BF00BF00BF04
:10B4500000BF00BF00BF00BF00BF00BF00BF00BFF4
:10B4600000BF00BF00BF00BF00BF00BF00BF00BFE4
:10B4700000BF00BF00BF00BF00BF00BF00BF00BFD4
:10B4800000BF00BF00BF00BF00BF00BF00BF00BFC4
:10B4900000BF00BF00BF00BF00BF00BF00BF00BFB4
:10B4A00000BF00BF00BFC5D170470000401E00BFF5
:10B4B00000BF00BF00BF00BF00BF00BF00BF00BF94
:10B4C00000BF00BF00BF00BF00BF00BF00BF00BF84
:10B4D00000BF00BF00BF00BF00BF00BF00BF00BF74
:10B4E00000BF00BF00BF00BF00BF00BF00BF00BF64
:10B4F00000BF00BF00BF00BF00BF00BF00BF00BF54
:10B5000000BF00BF00BF00BF00BF00BF00BF00BF43
:10B5100000BF00BF00BF00BF00BF00BF00BFC5D15C
:10B5200070470000056885F308884068FF2464B20E
:10B53000EFF30585002D01D1A646004725460646B6
:10B5400021273FBAF0B40024002500260027F0B4DC
:10B55000F92040B2004700000648804706480047EF
:10B56000FEE7FEE7FEE7FEE7FEE7FEE7FEE7FEE7B3
:10B57000FEE7000091B7070001B4070040EA0103AD
:10B580009B0703D009E008C9121F08C0042AFAD299
:10B5900003E011F8013B00F8013B521EF9D270475D
:10B5A000D2B201E000F8012B491EFBD27047002205
:10B5B000F6E710B513460A4604461946FFF7F0FFB2
:10B5C000204610BD30B504460020034600E05B1C59
:10B5D000934203D2E05CCD5C401BF8D030BD00004C
:10B5E000064C074D06E0E06840F0010394E80700D0
:10B5F00098471034AC42F6D3FFF706FFCCE60700BD
:10B60000ECE6070010B50C4610B10120086010BD33
:10B61000216891B11148421A814213D03C2A0ED2BE
:10B6200001223C3011F13C0111F8013900F80139D7
:10B630001346521C3C2BF7D904E00E200BE03C22B1
:10B64000FFF79CFF00223C21044801F04FF9034919
:10B65000891E08800020206010BD0000827F00202D
:10B6600000F01F02012191404009800000F1E0201C
:10B67000C0F88012704700F01F020121914040097C
:10B68000800000F1E020C0F80011704700F01F02B8
:10B69000012191404009800000F1E020C0F8001233
:10B6A00070474907090E002806DA00F00F0000F184
:10B6B000E02080F8141D704700F1E02080F80014AD
:10B6C0007047000007480021C0F84011C0F844113D
:10B6D000C0F84811C0F84C11C0F80011C0F80411AE
:10B6E00002F08CBE001001402DE9F04186B04FF011
:10B6F000FF30114D02906846D5E9046801F0BEFEA6
:10B70000074602F031F8044647B102AA41460098C4
:10B7100001F0D4FE029802F079F804E0029802F0F9
:10B7200075F800B914B1304601F01CF800206871BA
:10B7300006B0BDE8F0810000402C0020084810B59C
:10B74000406840B18047002809D00022BDE8104081
:10B75000114600F015BABDE8104001F0B5BF10BDAC
:10B76000C82C0020064802680649102A01D1064A62
:10B770000A600068402801D1044808607047000052
:10B7800058050040DC2C00200024F4000090D00379
:10B790002B4810B400780123062816D12848001D34
:10B7A0000078000711D1264808300078C0F3031054
:10B7B00003280AD122480C30007810F0F00F04D191
:10B7C0002048016821F0807101601E4874380168CA
:10B7D00041F470010160BFF34F8FBFF36F8F4FF0E3
:10B7E0001021D1F80002002803DBD1F80002002864
:10B7F00023DA154A136015480368002BFCD0152383
:10B80000C1F800320468002CFCD0C1F80432016891
:10B810000029FCD00021116001680029FCD0BFF391
:10B820004F8F0848F0380168094A01F4E06111437C
:10B830000160BFF34F8F00BFFDE710BCFFF792BF61
:10B84000E00F00F0FCED00E004E5014000E4014001
:10B850000400FA0502E008C8121F08C1002AFAD144
:10B8600070477047002001E001C1121F002AFBD180
:10B8700070472DE9F84300250646157000781446F8
:10B880000F4620B1304602F016F9050008D1B07815
:10B890004FF00C09E8B12078001D1F2802D9484656
:10B8A000BDE8F883684679DF0028F9D121780322C2
:10B8B000481C20707A5420781922411C21703A5477
:10B8C0002178BDF80000394402F0DCFD21780844FD
:10B8D0002070F078022268B120780123411C217089
:10B8E0003A542078411C21703B542078F378411C55
:10B8F00021703B54706890B1217890F90080C81C89
:10B900001F28CCD8481C20707A5421780A23481C60
:10B9100020707B542078411C217007F8008030890A
:10B9200048B13B460622022106F10800009402F0CD
:10B930001CFE0500B4D1308A48B13B4607220321E2
:10B9400006F11000009402F010FE0500A8D1308B23
:10B9500048B13B461522142106F11800009402F06C
:10B9600004FE05009CD1306A28B12246394600F019
:10B970004DFF050094D1706A28B12246394602F085
:10B980006BF805008CD196F82C0030B12246394670
:10B99000304602F0F5FB050082D1284680E7000022
:10B9A00010B5044612488EB0302180798DF83200EF
:10B9B00041F23050ADF830006846FFF7F8FD022044
:10B9C0008DF8000000208DF802000120ADF808007D
:10B9D0000CA803908DF803400021684600F0C6FAD9
:10B9E000002803D00022114600F0CAF80EB010BDA6
:10B9F000643200202DE9F043294C8BB0A078002858
:10BA00003AD118212748FFF7D2FDA046E078254C0F
:10BA100000254FF02809012688B304F14807009556
:10BA20000195029510226946F81D0395FFF7CAFD9E
:10BA300030B3F81DCDE9080709A8049008A80690BE
:10BA40008DF814608DF81C600420FFF7A9FF2570A5
:10BA50000220207204A8E060A4F8109065821148CA
:10BA600073DF18B10022114600F08AF80E494FF436
:10BA70000030086088F802600BB0BDE8F08307E092
:10BA80000520FFF78DFF2670676025722582E5E7A8
:10BA90000620FFF785FF257065602572DCE7000052
:10BAA000A02C00204C3200200C0500502DE9FF4155
:10BAB000054608790E4681070CD003221146284618
:10BAC00000F0F8FB002803D00022114600F058F8DF
:10BAD000BDE8FF812949009001F09EFD010011D1D0
:10BAE000264CB168143C009A6069FFF747FD009846
:10BAF00001F05EFD010005D16946204801F068FDB6
:10BB0000010003D0284601F0B1F8E1E704200190DC
:10BB10000098800802906069039001A801F070F815
:10BB200007000BD0092F10D0606901F00BFD010058
:10BB300002D0284601F09AF83946E3E730792169C6
:10BB4000084420616069A061C2E73079216901443D
:10BB5000216160780028BBD06089401E0004000C81
:10BB60006081B5D1284600F06DFB18B10022114666
:10BB700000F006F820896081AAE70000B42C0020BC
:10BB8000BFF34F8F05480168054A01F4E061114396
:10BB90000160BFF34F8F00BFFDE700000CED00E038
:10BBA0000400FA0538B50C46064BE268097853F8EC
:10BBB000225062680092024604F10C006369A847B3
:10BBC00038BD0000282C002070B50F4B054605201D
:10BBD0001C785E78A64216D01C7818789E88B042F1
:10BBE00001DA401C00E0002018705E88D86804FB71
:10BBF00006002860986800EBC4039B880B8050F80F
:10BC000034001060002070BD302C00202DE9F84F6A
:10BC1000394C8246934660880F46814269D837483E
:10BC20004FF000098DF800904FF6FF780068454608
:10BC300010EAE81012D0103840B2002806DA00F0FE
:10BC40000F0000F1E02090F8140D03E000F1E02077
:10BC500090F800044609012E01D109E00426684647
:10BC600036DF02280BD018B100221146FFF788FFFB
:10BC700021786078A288904203DA401C02E072B614
:10BC8000F6E70020C0B2884207D06578607890421D
:10BC900001DA401C00E000206070012E0AD062B67C
:10BCA0009DF8000037DF022804D018B100221146A9
:10BCB000FFF766FF45451AD0A068BAF1000F40F8BB
:10BCC00035B00DD067B16188E0683A4605FB0100E8
:10BCD0005146FFF753FCA06800EBC500878003E0E6
:10BCE00000EBC500A0F804900020BDE8F88F042008
:10BCF000FBE70920F9E70000302C002004ED00E00C
:10BD00000EB504E0029ABDF804100098904702AA0C
:10BD100001A96846FFF758FF0028F3D00EBD0000C8
:10BD200030B5CB0008339DB293074FF0000401D02B
:10BD3000072030BD044B9A602A44DA605C701C70A6
:10BD400058809980002030BD302C002070B5114DF6
:10BD5000AC6824B12AB120B100232D780AE0082074
:10BD600070BD072070BD00BF03EBC30614F826604A
:10BD700026B15B1CAB42F7DB042070BD03EBC305AF
:10BD8000012604F8256004EB85046170A26103605C
:10BD9000002070BD402C002010B50446082904D0B6
:10BDA000002211461046FFF7EBFED4E90010BDE873
:10BDB000104008471CB5044ACDE900010821684637
:10BDC000FFF724FF1CBD000099BD07002DE9F047D7
:10BDD0008146089C1D461746884698074FF0000686
:10BDE0000AD14DB102F06CF92046244CA06184F8D0
:10BDF00000800020A5600BE00720BDE8F08700BFB1
:10BE000000EBC001401C05F8216005EB81010E75B7
:10BE10004045F5DB08EBC80005EB800103206070AE
:10BE200001F11800002207EB4705E16001EBC203B6
:10BE3000521C1E705E709F70586000EBC500032A94
:10BE4000F4DB4FF0FF302061A670E6701420FFF79E
:10BE500007FC03211420FFF724FC1420FFF70BFC40
:10BE60000749C1F8009003211120FFF71AFC04488C
:10BE7000001F006860610020BFE70000402C002028
:10BE8000081501402DE9F84304461F480D461746A2
:10BE9000816869B10278944201D2052D02D207204F
:10BEA000BDE8F88304EBC40211F82230012B01D065
:10BEB0000820F5E7814601EB8200407801281FD079
:10BEC0005FF0000602F01CFBD9F80C10804601EB75
:10BED000C800694602F036FBA0B1012100F8041B3E
:10BEE0000A4910C0096880E8E200D9F80C100098EF
:10BEF00001EBC80148701420FFF7C8FB0020CFE712
:10BF00002E46DFE70420CBE7402C0020041501403B
:10BF1000F8B5154C0546A06850B121788D4201D383
:10BF20000720F8BD05EBC50110F82100012801D05C
:10BF30000820F8BD02F0E4FA0646E068694600EB26
:10BF4000C60002F0FFFA60B1022101704560E068AE
:10BF500000EBC601009848701420FFF797FB002003
:10BF6000F8BD0420F8BD0000402C002070B50C4640
:10BF700092B000218DF800108DF80410072550B103
:10BF8000C17849070BD56A4602A9FFF772FC002861
:10BF900006D102AE00E000266CB1E07810B1284670
:10BFA00012B070BD01AA0AA92046FFF762FC002862
:10BFB000F6D10AAA00E000229DF804309DF8001096
:10BFC000304672DFECE7000070B5054601461C22E2
:10BFD0001048FFF7D3FA104C00262670286838B1B5
:10BFE0000168A1604068E06004F108007ADF02E0C7
:10BFF000094808307BDF00280BD14FF6FF706080C6
:10C000006670BDE8704004480021044A001DFFF737
:10C010009DBE70BDB8300020002C0020A1E40700B8
:10C0200070B5204C068800251D49E289102E16D0D7
:10C030000B46112E5B681ED0122E2BD0502E19D11C
:10C0400030F8061F914215D1018B022912D1807E52
:10C0500010F0010F13D0BDE8704000F01DBC8388C4
:10C060004B80D0F816300B61D0F81A0048614D7043
:10C07000002AF0D070BD4FF6FF7048804D70184612
:10C08000FFF746FF0028F5D0A1690029F2D0BDE8EE
:10C090007040084750F8062F0A6140684861DAE7A7
:10C0A000002C0020B830002001484068FFF730BF66
:10C0B000002C0020F0B585B00A4605002FD0288856
:10C0C000A0F57F41FF392CD01748007848B3164CB3
:10C0D0001020641C0127207007206070A7700320C7
:10C0E000ADF810000026E11C104602F0D0F9BDF8B2
:10C0F000101000960844ADF81000019602960396C1
:10C10000288AADF8000004A8CDE902048DF8027079
:10C11000ADF8046028886946A6DF05B0F0BD0E20A2
:10C12000FBE70820F9E70000182C002030B585B0A7
:10C130000D46040039D0BDB36868A8B31C4B4FF658
:10C14000FF7020800FCB0DF1040C8CE80F0041F242
:10C150003050ADF8000001A8811E63DF002821D116
:10C16000221D69460120A0DF00281BD19DF8020096
:10C17000A071204600F0A0FE002813D1204600F058
:10C18000F0FC00280ED12946204600F023FF0028AD
:10C1900008D16868A062A86800B1E0620549012082
:10C1A0000870002005B030BDFFE70E20FAE7000060
:10C1B0005CE60700182C00203EB500283CD0002982
:10C1C0003AD0826A002A37D00A88102A23D0112A4E
:10C1D00033D0502A21D0512A2ED104460A4611F8D4
:10C1E000060F022828D14888238A984224D1907AC1
:10C1F000042821D006281FD005281DD02046891CE0
:10C2000001F09EFD002817D0E16A002914D003B088
:10C21000BDE830400847898811E0CA8803899A42FE
:10C220000AD108228DF800208A7F20318DF8042061
:10C230000291826A694690473EBD4FF6FF710180C8
:10C240003EBD0000F0B585B00A4605002BD0288819
:10C25000A0F57F41FF3928D01548007828B3144C49
:10C260001120641C012720700026ADF81070611C9D
:10C27000104602F00CF9BDF8101000960844ADF815
:10C280001000019602960396288AADF8000004A8D3
:10C29000CDE902048DF80270ADF804602888694683
:10C2A000A6DF05B0F0BD0E20FBE70820F9E700008F
:10C2B000182C002030B585B028B30388A3F57F443F
:10C2C000FF3C22D0124B1B78FBB1114B10255B1C9D
:10C2D00000241D7059709A7001250321ADF81010CB
:10C2E0000094019402940394018AADF8001004A90B
:10C2F000CDE902138DF80250ADF80440008869467C
:10C30000A6DF05B030BD0E20FBE70820F9E70000EE
:10C31000182C002010B50446FFF782FE2146044881
:10C32000FFF74AFF2046BDE8104001F041BC000085
:10C330006432002010B51C4C86B01ECC8DE81E0067
:10C3400030B1684618DF18B100221146FFF718FC1B
:10C350004FF4F62013DF18B100221146FFF710FC4E
:10C36000124B48221249082001F06EFF18B100223A
:10C370001146FFF705FC00200490059001208DF880
:10C38000100004A860DF18B100221146FFF7F8FB87
:10C39000084801F071FF002803D000221146FFF782
:10C3A000EFFB06B010BD00004CE6070039E20700C5
:10C3B000202F002011E3070038B50068401C18D07A
:10C3C0000024684600F058F90098017801290FD13F
:10C3D000418851B181684FF4A0400022806800F08C
:10C3E00085FA00994988814201D1012400E00024A6
:10C3F000204638BD70B511DF18B100221146FFF795
:10C40000BFFB4FF0E0210020D1F800315FF00104C4
:10C4100004FA00F21A420AD042B202F01F0504FAEE
:10C4200005F15209920002F1E022C2F88011401C8D
:10C430002028EDD34FF4A044A06813DF18B10022E8
:10C440001146FFF79DFBA068BDE8704000F012B9EF
:10C4500008B5684600F010F900980178A52904D0C5
:10C460000079AA2801D0002008BD012008BD10B520
:10C4700000F03CFE18B900F0D2FA002819D0642070
:10C4800001F04EFB00F0F5FD18B100221146FFF758
:10C4900077FB00F02BFE18B100221146FFF770FB6E
:10C4A00000F09EFA040003D000221146FFF768FB5B
:10C4B000204610BD00B587B01422084901A8FFF737
:10C4C0005DF805980DF1040C00909CE80F0000F059
:10C4D00013F802F0A7F807B0002000BD78E60700C7
:10C4E00010B500F00FFC002805D100F00FFF044646
:10C4F00002F098F8204610BD2DE9F84304460E4698
:10C5000017461D466846DDF8208000F0B5F814F0A7
:10C51000FF024FEA1441304C30484FF001034FF016
:10C52000FF0C10D0012A14D0032A23D00021022AA4
:10C530002DD0052A3FD0042A46D0062A01D1042056
:10C540002070BDE8F88341808560037080F804C0E6
:10C550000BE04180F11929448160A521017080F828
:10C5600004C0C0F81880C6600EE023701B4800F0BD
:10C5700065F8E6E700990A7802704A88428089687F
:10C580008160AA210171C660C0E90475EDE7009AD7
:10C590001578A52D0AD0057055884580926882606F
:10C5A00080F804C0C16001614161DEE741808160C3
:10C5B00080F800C0F4E700F07FFE18B100221146B9
:10C5C000FFF7DEFA0320BBE74180816080F800C0FE
:10C5D000009909790171C9E7642C0020C831002055
:10C5E0000EB5084A07CA8DE8070001F0D1FC002803
:10C5F00006D105494FF4FE204860684601F0E8FC8A
:10C600000EBD00006CE60700682C002038B504461B
:10C61000684600F031F80098017821704188618007
:10C620008168A16001792171C168E16001692161BE
:10C63000416961618069A06138BD000010B50446A0
:10C640001C210B4801F09AFC18B100221146FFF79B
:10C6500097FA00231C222146054801F0CBFC002854
:10C6600005D00022BDE810401146FFF789BA10BD81
:10C67000682C0020FEF756BF01490160704700009A
:10C6800000F0070070B5174C0F20217801EB410135
:10C6900004EBC1021449536912F8045F4968012D83
:10C6A0000ED0032D0BD14FF08050006980B2B3FB48
:10C6B000F0F0084428DF002801D10121A17070BDED
:10C6C0000803516856690D1A3118926818441044CD
:10C6D000B5F5805F02D2AA0829DFECE74FF480624B
:10C6E00029DFE8E7D4300020202C002000EB4002B6
:10C6F0000548002100EBC200022201718160C0E9FF
:10C7000004218161C1607047D43000202DE9F041DF
:10C71000134C069E65780A2D1FD027783D44EDB254
:10C720000A2D01D30A3DEDB205EB450504EBC50525
:10C730002871AA61D1E90001C5E90401C5E9023601
:10C74000A178002021B9FFF79DFF112800D100201A
:10C750006178491C6170BDE8F0810420FBE70000AE
:10C76000D43000202DE9F05F254801694A1C41D0F2
:10C77000826801EBC101DFF88CB002EB81018146D8
:10C780004E68DBF8004047690079E11B21F07F45E6
:10C79000ED1CB0B9DFF870804FF48030C8F8440366
:10C7A000C8F804031120FEF75BFF1120FEF763FFBA
:10C7B0004FF0010AC8F800A02F20FEF777FE89F895
:10C7C00004A0B54200D235460E49E8193C3120F0AC
:10C7D0007F400860DBF80010001B091B21F07F413F
:10C7E00020F07F40C91C814208D9BDE8F05F1120CC
:10C7F000FEF74CBFBDE8F05F01F062BCBDE8F09F02
:10C80000402C002004150140001001402DE9F041AA
:10C8100013780646981D14460D461F2802D90C2091
:10C82000BDE8F0813188072206290AD34FF4486C0D
:10C830004FF6FF77614501D9B94202D170880628C9
:10C8400001D21046ECE7604501D9B842F9D1B942AE
:10C8500003D0B84201D08142F3D8581C0521207082
:10C86000E95420781222411C21702A542078411961
:10C87000308801F007FE21780844C0B220704119C9
:10C88000708801F0FFFD2178084420700020C7E780
:10C8900000221146FFF774B9F8B5124800F050FFB6
:10C8A000104D0026104C103D30B16169B1B101202E
:10C8B0008DF80000684610E0287820B1616969B100
:10C8C0008DF80060F6E7687850B1A16800226868CA
:10C8D000FFF7D8FA10B1A16901B188472E70F8BDF1
:10C8E0006168F3E7102C0020B830002010B5044632
:10C8F00012B11088002211E04FF6FF70FAE7030A28
:10C9000043EA0023A05C5840C0F30313584080EA78
:10C91000003080B2C3B280EA4310521C8A42EED388
:10C9200010BD000030B5174C87B01748E16801F022
:10C9300025FB18B100221146FFF722F91248E268E0
:10C94000083800234168083001F054FB050015D178
:10C95000142101A8FEF72BFE00208DF804000A48E0
:10C960000DF1040C24388088ADF80600E0680490CE
:10C97000059800909CE80F00FFF7BEFD07B0284621
:10C9800030BD0000E4310020942C0020032161F32D
:10C99000070008B50549064B898861F31F400ECB97
:10C9A0000094FFF7A9FD002008BD0000702C0020B6
:10C9B000E8310020012138B561F307000649074B33
:10C9C000898861F31F404FF4A0418C680ECB00941E
:10C9D000FFF792FD002038BD702C0020E8310020C8
:10C9E00000B58BB004A8FFF711FE089800280CD002
:10C9F000079860B107990A9808440021CDE9001012
:10CA0000089880080290684618DF0BB000BD4FF40C
:10CA1000A0408068C0F5F62100EB5100EDE700B5BD
:10CA20008BB004A8FFF7F2FD089800280FD00798F4
:10CA300078B107990A980844032100914FF4F62130
:10CA4000CDE90110089880080390684618DF0BB004
:10CA500000BD4FF4A0408068C0F5F62100EB510006
:10CA6000EAE7000070B504000BD000223C210B481F
:10CA7000FFF73CFF094DAD1E2988884203D00B20EB
:10CA800070BD0E2070BD3C2204492046FEF776FDA5
:10CA90002888401C2880002070BD0000827F002074
:10CAA00070B515460A46032823D0042828D1154C12
:10CAB00039B1E088A0F57F41FF3921D0132176DF1D
:10CAC0000FE0284600F03EFD18B100221146FFF7A6
:10CAD00057F8A069A84213D1012203210A48FFF7A1
:10CAE000E9FB00280CD0BDE8704000221146FFF79A
:10CAF00047B80121104601F020F802460121EDE778
:10CB000070BD0000A02C00206432002000B587B06A
:10CB10001422074901A8FEF731FD05980DF1040C18
:10CB200000909CE80F00FFF7E7FC07B000BD000095
:10CB30008CE6070070471FB503230093CDE9010180
:10CB400090080390684618DF04B010BD1FB501239C
:10CB50000093CDE9010190080390684618DF04B006
:10CB600010BD30B58FB005461C216846FEF71FFD8D
:10CB700000249DF80000019440F018008DF800009A
:10CB80000394049405940694A8798DF8360041F234
:10CB90003150ADF834000C949DF83000142120F091
:10CBA000FF008DF830009DF8310020F00F00401C90
:10CBB00020F0F00010308DF831009DF8320020F0A8
:10CBC0000600801C20F0080040F011008DF83200B3
:10CBD00007A8FEF7ECFC0DA807900CA80890ADF88C
:10CBE00024401720ADF82640ADF828000B94A88803
:10CBF00005F1100307AA6946A2DF0FB030BD00009F
:10CC000070B5050004D0287A800703D0102070BDCD
:10CC10000E2070BD144C6078032803D0042801D086
:10CC2000052801D0082070BD6868E1688600A0680A
:10CC30003044884204D94FF0FF30A0600C2070BD12
:10CC400000F01CFB0028FAD1A9683246A36860698D
:10CC500001F0D0F90028F2D1A1683144A160E26866
:10CC60009142ECD0092070BD702C002010B50A460E
:10CC700004460321104600F060FF024603212046CF
:10CC8000FFF718FB002805D00022BDE81040114630
:10CC9000FEF776BF10BD0000094810B5417807299E
:10CCA00001D0082010BD0069FFF732F918B1002249
:10CCB0001146FEF765FF03488068BDE81040004755
:10CCC000702C00203432002010B50D4C60780528FF
:10CCD00013D1D4E9020188420FD10620607000F020
:10CCE000CDFA002808D16069E168406800F092F848
:10CCF000002801D10721617010BD082010BD00007F
:10CD0000702C00203EB51D4A1D4C002507CA8DE839
:10CD10000700A570A58004F12401684601F058F9C8
:10CD200008B165703EBD16494FF4A04024318068BB
:10CD30004860616AE161C0F5F62100EB51001049DD
:10CD4000104A1C3148600E4800211030FEF7FEFFEB
:10CD500018B100221146FEF713FF00224FF47011A4
:10CD60002069FFF78FF818B100221146FEF708FF7F
:10CD70000120A560607000203EBD0000A0E6070015
:10CD8000702C002061D2070010B5094C0820A16862
:10CD900001B110BD61780429FBD1A178054800F0EC
:10CDA00047F810B10021A17010BD0521617010BDC0
:10CDB000702C0020F43100202DE9F041134C07467F
:10CDC0006078032805D0042805D008252846BDE84A
:10CDD000F08104206070A06808B10820F7E700F037
:10CDE0004DFA0500F3D178688600A07881194029B2
:10CDF00001D90920EBE7064AB96810443246FEF72C
:10CE0000BDFBA0783044A070E0E70000702C00204B
:10CE1000F431002010B50022FFF768FD03490988AE
:10CE2000884201D00B2010BD002010BD40320020F0
:10CE300070B500250C290ED343180189044600EB78
:10CE40004101581A0A38C2B21948022A027002D3A4
:10CE50000A318B4201D2092070BD1648FEF78EFBC5
:10CE60004FF010214FF6FF70B1F88020824202D0BF
:10CE70002388934219D1B1F88210814202D0608890
:10CE8000884212D120894FF6FE724FF4A043A84287
:10CE90000BD904EB45014989914204D09E896D1C50
:10CEA000B6B2B142F3D1002070BD0B2070BD0000BE
:10CEB0009C2C00204032002030B58FB005461C214C
:10CEC0006846FEF774FB00249DF80000019440F0D2
:10CED00004008DF800000394049405940694A87946
:10CEE0008DF8360041F23250ADF834000C949DF8C4
:10CEF0003000142120F0FF008DF830009DF8310043
:10CF000020F00F00401C20F0F00010308DF83100B0
:10CF10009DF8320020F00600801C20F0180040F040
:10CF200001008DF8320007A8FEF741FB0DA807901D
:10CF30000CA80890ADF824401420ADF82640ADF8B8
:10CF400028000B94A88805F1080307AA6946A2DF08
:10CF50000FB030BD094910B5A1F124004161022193
:10CF60004170C168243001F009F8002805D0002282
:10CF7000BDE810401146FEF703BE10BD942C002002
:10CF80000C4910B5A1F11C004161022141704FF420
:10CF9000A0408068C0F5F6204108064800F0EEFF8A
:10CFA000002805D00022BDE810401146FEF7E8BD7C
:10CFB00010BD00008C2C00200149886170470000E2
:10CFC000702C002038B5062565F307000094FFF7A4
:10CFD00093FA38BD70B58EB00E4605461C216846E2
:10CFE000FEF7E5FA00249DF80000019440F00200ED
:10CFF0008DF800000394049405940694A8798DF8A4
:10D00000360041F23450ADF834000C949DF83000F5
:10D01000142120F00F00401C20F0F00010308DF89B
:10D0200030009DF8310020F0FF008DF831009DF8B0
:10D03000320020F00600801C20F0180040F00100B3
:10D040008DF8320007A8FEF7B2FA0DA807900CA8D9
:10D0500008900220ADF82400ADF82640ADF8280075
:10D060000B96A88805F1200307AA6946A2DF0EB037
:10D0700070BD2DE9F04188B06846FFF7C7FA039804
:10D0800000282BD0069A00F540504FF440519042B2
:10D0900027D9A2F5405044081046039A00EB4406F5
:10D0A00087184FF4A0400D46806801EB4408904279
:10D0B0000ED204F5405004220146FFF747FD002838
:10D0C0000CD1294604220846FFF740FD002805D16F
:10D0D000BA1B23464146304600F038F808B0BDE898
:10D0E000F081039A0698FFF731FDF7E730B58FB06E
:10D0F00002A8FFF78BFA0598002817D0089A00F5C8
:10D1000040504FF44051904216D9A2F54050430888
:10D1100010464FF4A044059AA468059D024400EB14
:10D12000430001EB4301AC4202D20E200FB030BDF0
:10D13000121A00F00BF8F9E70BAB032083E80700A5
:10D14000059880080E900BA818DFEFE72DE9F04155
:10D150001C4617460D460646FFF7EDFC002818D082
:10D16000B5F5405F07D92346291B301B1A46FFF748
:10D17000EDFF00280DD13A4629463046FFF7E6FC80
:10D18000002806D13A4629463046BDE8F041FFF76F
:10D19000D2BCBDE8F081000070B542682748D2E9F2
:10D1A0000043D2E90212C0E90212C0E9004300784C
:10D1B000440701D5840705D19C0703D18C0701D111
:10D1C000940701D0062070BD1D4D0B441A44EA603F
:10D1D000B1F5804F17D8194CC3074FF4A04104F1A3
:10D1E00050040AD08868C0F5F62090420BD3154849
:10D1F000206015486060154810E08968C1F5F62187
:10D20000B2EB510F01D90C2070BD114921601149B9
:10D210006160800701D5104800E01048A060687880
:10D22000012802D00826304670BD00F027F806001D
:10D23000FAD12168E8688847F5E70000E43100206A
:10D24000702C002055CF07000DCB0700B5C9070093
:10D2500081CF070035CB07008DC9070025C907001E
:10D2600068B5054E01253570052565F30700009466
:10D27000FFF742F968BD0000702C002010B50D4C7E
:10D28000207808B1082010BD2069FEF741FE18B1D2
:10D2900000221146FEF774FC00224FF47011206941
:10D2A000FEF7F0FD040003D000221146FEF768FCF3
:10D2B000204610BD702C002010B5134C01202070AA
:10D2C000E088A0F57F41FF3907D0132176DF88B1D0
:10D2D00000221146FEF754FC0CE0A07850B174DF38
:10D2E00018B100221146FEF74BFC112000F058FC4B
:10D2F0000020A070FEF7D8FE18B100221146FEF7FC
:10D300003FFC002010BD0000A02C002030B5524D85
:10D3100087B000242C702C71112000F039FC1220F1
:10D3200000F036FC112000F03BFC122000F038FC2D
:10D330004A4800F06BFF00287DD14948FFF73CFECA
:10D3400000F0ECF8002876D14648FFF78BFB002868
:10D350007FD0684671DF18B100221146FEF710FC3D
:10D360009DF801006946401C8DF80100002070DF27
:10D3700018B100221146FEF703FC9DF808003AA1FF
:10D3800020F00F00401C20F0F00010308DF8080055
:10D39000072202A87CDF18B100221146FEF7F0FB3D
:10D3A00000940C20ADF8000018200194ADF80200A4
:10D3B000ADF804404FF4C870ADF8060068467ADF57
:10D3C00018B100221146FEF7DBFB06200094ADF8F1
:10D3D00000002748019027480290224869463038CB
:10D3E000FEF7A4FE18B100221146FEF7C9FB1C216E
:10D3F0006846FEF7DCF840F6CD40CDE900404FF43A
:10D400008040029003208DF80C001B48ADF80E40C0
:10D410008DF81040CDE905406846FEF7D5FD18B1FE
:10D4200000221146FEF7ACFB0B481C30017821F0BE
:10D430001F010C3101E00AE00BE021F02001017036
:10D440000721417010218170FEF7D4FA002007B047
:10D4500030BD0120E87090E7A02C002015C3070024
:10D46000A1CA0700943200204466755465737400A5
:10D4700021DE0700F9E1070091C807000E4910B549
:10D480008A78CC780023A24212D0521CD2B28A7081
:10D49000022A00D18B70084A8B781C3252F8232064
:10D4A00002604869104420F07F404861012010BDAF
:10D4B0000360002010BD0000402C00202DE9F04347
:10D4C000154E89460024B768336920E003EBC30199
:10D4D00007EB81014D68854202D9281A486018E09F
:10D4E000401B2C4400254D600D751D46D1F810C021
:10D4F0000B6ABCF1000F0AD009EB040828F07F4842
:10D50000C1E9028CD2F800C0C1F820C01560591CD6
:10D51000DCD13361BDE8F083402C002007480021B6
:10D52000074A017002F5907002600822C0E90121EB
:10D53000C16001614161816108467047C12C0020D2
:10D54000D0320020F0B5194A0646916861B355699A
:10D550001020691A01F00701D2F800700B4601246F
:10D5600001EBC10C07EB8C0CB44506D1956904FAAC
:10D5700001F675400020956104E0491C01F00701A7
:10D580008D42EDD1491C956901F0070104FA03F3BE
:10D590001D420AD19368002B07D05B1E936053682D
:10D5A0005B1C53600B46F1E70420F0BDF033002014
:10D5B000064920230A7C0968521E02F0070202EB8A
:10D5C000C20203EB8202885000207047F033002033
:10D5D00070B5D0B1C9B10F4AD368C3B15B1ED36077
:10D5E00093685B1C93605369156803EBC30405EBF8
:10D5F00084060660202000EB84005B1C285808602D
:10D6000003F007005061002070BD0E2070BD0420A3
:10D6100070BD0000F033002010B5E9B100220A60AF
:10D62000104A5368E3B1202818D85B1E5360D068B5
:10D63000401CD0601069136800EBC00403EB840346
:10D640000B60012383409169401C194300F00700DF
:10D6500091611061002010BD0E2010BD0C2010BD86
:10D66000042010BDF0330020FEB50446087982077F
:10D670000ED000F00302C2F104030022154604E0BC
:10D680008E683554401CC0B2521C9A42F8D30871BF
:10D69000012000908868029008798008019068460F
:10D6A000FFF78AFB00280DD0022100F046FA02465F
:10D6B00002212046FEF7FEFD002803D0002211467D
:10D6C000FEF75EFAFEBD0000F8B51C4C207800287D
:10D6D00032D0206928B10026E06820B1002526B1AB
:10D6E00012E00126F8E70125F9E7684651DF052831
:10D6F00005D030B100221146FEF742FA04E00126BF
:10D7000002E021690098884795B96088ADF800006B
:10D710006946A06861DF052805D030B100221146B6
:10D72000FEF72EFA04E0012502E0D4E90201884761
:10D73000002EDAD0002DD2D0F8BD0000C82C002079
:10D74000054940880A88904204D34988884201D814
:10D750000120704700207047082C0020800701D06E
:10D7600000207047012070472DE9F04726484FF010
:10D77000000980464578D0F810A038E0D8F80C00B1
:10D7800000EBC50634782FE004EB44017068641C9C
:10D7900000EBC100B178E4B2A14200D100240178CD
:10D7A000022902D003291FD115E04068D8F80810DB
:10D7B00000EBC00201EB8207397DA9B100F0E0FD6A
:10D7C00087F8149010E000BF00EBC00002EB80006F
:10D7D0000375006A04E0D8F80820D8F810004B461A
:10D7E000471CF1D1C8F810007078A042CCD16D1E52
:10D7F000EDB2C3D2D8F81010514502D00120BDE8D7
:10D80000F0870020FBE70000402C00202DE9F047C6
:10D8100004463D48002781464678D0F810A067E0CE
:10D82000D9F80C1001EBC6055CE0601C08D022465C
:10D83000D9F8080004EBC20100EB8100046A2FE074
:10D840002878696800EB4002401CC0B201EBC201BD
:10D850002870AA78904200D12F704A68D9F808C081
:10D8600002EBC2000CEB800091F800C0BCF1010F8C
:10D870003AD190F814C0BCF1000F35D1D1F808C0EE
:10D88000C0F808C0D1F80CC0C0F80CC0D1F810C066
:10D89000C0F810C04969C16199F8051001B18760ED
:10D8A0008368D9F814C0DFF86480A3EB0C0121F081
:10D8B0007F41414502D2C368194407E0ACEB030144
:10D8C000C36821F07F418B4202D9591A416000E0C0
:10D8D000476087600121C7600175891E016210469B
:10D8E00000F018FD601CA0D12878697888429CD18E
:10D8F000761EF6B294D2D9F81010514502D001200C
:10D90000BDE8F0870020FBE7402C0020FFFF7F00F0
:10D910001CB54B4801680026B12955D000250122CD
:10D920001320009600231146019600F020F9454F80
:10D930004FF400243C604FF010204069B0F5F62F02
:10D9400004D0002211461046FEF71AF94FF080501D
:10D950000069B0F5805F04D0002211461046FEF742
:10D960000FF939480090394B052203210020FEF7BA
:10D970002DFA18B100221146FEF702F90323CDE972
:10D98000006300221020114600F0F1F8FEF728FE97
:10D99000FEF75EFD2B4E361DC8B13460FEF767FD05
:10D9A00018B100221146FEF7EBF885F00100FEF7F2
:10D9B000C1FC00F0A3FBFEF77DFD18B1002211466B
:10D9C000FEF7DEF83C6008E001250660A7E785F079
:10D9D0000100FEF7AFFC00F091FB1A480830006828
:10D9E000000C10F0010F05D0002028434FF4A04593
:10D9F00006D101E00120F8E7A868FEF7DDFC40B998
:10DA00003460FEF76DFD18B100221146FEF7B8F83C
:10DA10003C60A868FEF7D0FC28B1FEF719FD10B9EC
:10DA2000A868FEF7E7FCBFF34F8F09480168094A71
:10DA300001F4E06111430160BFF34F8F00BFFDE7C8
:10DA40001C05004008050050B5BD0700E02C002073
:10DA50000CED00E00400FA0570B5054600790E46AD
:10DA6000801C1446C0B21178821C0A441F2A01D9B6
:10DA70000C2070BD4A1C2270401C70542078FF227C
:10DA8000411C2170325420788119288800F0FAFC5A
:10DA900021780844C0B22070AA8842B1A96841B177
:10DAA0003044FDF76BFD2078297908442070002070
:10DAB00070BD072070BDF8B514780746A01C154648
:10DAC0000E461F2803D87878801C1F2801D90C2007
:10DAD000F8BDC4F11D001FFA80FE3019ADF800E05A
:10DAE0006946801C7DDF0028F2D13878022805D1F4
:10DAF000BDF80000704501D8092106E078780821BA
:10DB000008B1704501D9BDF80000421C3255641CB3
:10DB1000E2B2801CB1542978084428700020F8BD76
:10DB200031B540F2E73404E0401E00902046FDF796
:10DB300081FC00980028F7D138BD08280BD003DC01
:10DB400038B106280FD108E00B280AD00C280AD1DA
:10DB500005E0012070470220704703207047042031
:10DB60007047042901D0062070470520704730B562
:10DB700041EA4201DDE9034541EA8301800041EACF
:10DB8000042100F1A04041EA0541C0F8001730BD72
:10DB90000321800000F1A040C0F80017704700008A
:10DBA00001218140014801607047000008050050D4
:10DBB000F0B55F4C0546008800270122E688A7B033
:10DBC000172810D024DC112845D00EDC02287CD088
:10DBD000102808D15749800308601120FFF7E0FFA3
:10DBE000A888E080A77027B0F0BD5349132801F141
:10DBF00018044AD01428F6D1E8894A8D00269042AC
:10DC000000D126460023CA1DA888314682DF1BE0CA
:10DC100051286CD00EDC18287ED01928E3D1A879C1
:10DC20000028E0D1A770E068401EE0604ED0FDF70C
:10DC3000E1FED8E7522877D05528D4D1A87900281A
:10DC4000D1D11321304676DF0028CCD000221146F6
:10DC5000FDF796FFC7E78020ADF894003220E06022
:10DC60001220FFF79DFF012325AA01A9E088AADF62
:10DC700018B100221146FDF783FF207808B9FDF79F
:10DC8000B9FE4FF6FF70E080ADE72B48C91D48385C
:10DC900050F8482F05928288ADF8182080798DF8C9
:10DCA0001A00102201A8FDF769FC1C2221460EA8CB
:10DCB000FDF764FC01A80B901D4A0EA81C320A90C7
:10DCC00007AB852130467FDFBEE70CE014221B49FD
:10DCD00001A8FDF753FC059801AC009094E80F00F3
:10DCE000FEF70AFC7FE70021304667DFACE7A97941
:10DCF00000299ED0A87A042803D0062801D0052840
:10DD000097D102290CD08DF8842000BF4FF4C17048
:10DD1000ADF8880021A900E006E03046A8DF93E7CF
:10DD200002208DF88400F1E700F0FAF98CE700009A
:10DD3000A02C00200C05005094320020B8E607000B
:10DD4000F0B58BB002278DF80C70002604460896BB
:10DD5000ADF8207007A8ADF8226009900D46A18AA1
:10DD6000208808AAA5DF18B1E16AD1B1884718E078
:10DD70009DF81C0010F0010F13D0ADF81060208842
:10DD800003A9A8DF002813D1A97E012205F11B00F9
:10DD9000092943D2DFE801F0420E1D2326282A403C
:10DDA0002C0040F2FD10ADF81000208803A9A8DF78
:10DDB0000BB0F0BD8DF800600DE006221DE000BF45
:10DDC0008DF804200290A26A694620469047002000
:10DDD000EEE78DF800202B8B022BF1D2EDE78DF8CA
:10DDE0000070F0E7032012E0042010E005200EE0B0
:10DDF000288B032805D2032208212046FEF75AFA71
:10DE0000D6E7B5F81B00ADF8040018B106208DF870
:10DE10000000D8E70720FAE70920F8E70322ECE73B
:10DE200070B504460B780120344A0A2B18D2DFE87B
:10DE300003F0232840050D18575C4360FEF744FFAC
:10DE40000421FFF77AFE0246042127E0FFF734FAA7
:10DE500018B100221146FDF793FEFEF71DFF38B9F9
:10DE600070BDFFF729FA18B100221146FDF788FEB0
:10DE7000BDE87040FFF7A6B810718868007850714F
:10DE800070BD02201071886800780128F8D1FEF773
:10DE90007BFF0221FFF751FE024602212046FEF7DA
:10DEA00009FA0028ECD0BDE8704000221146FDF7C9
:10DEB00067BE0320107170BD12792046012A07D079
:10DEC000022A09D0032AF6D1BDE87040FDF7EEBD65
:10DED000BDE8704000F0DAB9BDE87040FFF7C4BBA0
:10DEE000507088881081508170BD00205070108162
:10DEF00070BD20461169FEF7DDF8D2E7A02C0020A6
:10DF000007480378012B03D1012901D102210170B7
:10DF1000100003D000221146FDF732BE704700000A
:10DF2000642C002070B5134C1E46154660780129FC
:10DF300002D0032914D107E0052811D1A3697BB1D0
:10DF40003246294604200AE0022809D10A484068DE
:10DF5000804703206070A36913B132462946984771
:10DF6000280005D0BDE8704000221146FDF708BE2C
:10DF700070BD0000702C00203432002008B50B4624
:10DF80000022014603200092FEF7C0FB08BD0000FE
:10DF900070B50D4E00240D48746025460470447021
:10DFA00084702846FEF7A2FB6D1C0A2DF9D30649A2
:10DFB000346000200831746041F82040401C022881
:10DFC000FAD3002070BD0000202C0020D4300020A7
:10DFD000074B1A68022A09D00A6003F10801006899
:10DFE00041F82200521C00201A607047042070473C
:10DFF000202C0020F8B507461D4616460C4608465C
:10E00000FFF7ACFB58B16019FFF7A8FB38B13346F6
:10E010002246394601200095FEF778FBF8BD102016
:10E02000F8BD000070B5244C06460022A0780128F7
:10E0300041D100232146A3700D78022E05EB450047
:10E0400001EBC00103D0032E35D10D202EE01B487B
:10E050004668761C46608968B1EB063F15D8436078
:10E060006078401E6070681CC0B220700A2801D31E
:10E070000A38207005EB450004EBC0011046091D6D
:10E08000FDF790FD2846FEF731FB6078002812D09E
:10E09000A07800280FD1FEF7F5FA00280BD0112840
:10E0A00009D0217801EB410104EBC101BDE87040CA
:10E0B000091DFDF777BD70BDD4300020202C002055
:10E0C00070B5012670044FF0E0210025C1F88001F1
:10E0D000084C4010C4F84803C4F8080366602F20B9
:10E0E000FDF7E4F9A660044C2F206561FDF7DEF929
:10E0F000257170BD00100140402C002010B5074A6A
:10E1000014210820FDF70CFE002805D00022BDE8F0
:10E1100010401146FDF734BD10BD0000682F0020EF
:10E1200070B5154C4FF6FF75E088A84201D1082064
:10E1300070BDE178D1B1012308221049A9DF002880
:10E14000F6D1022300221146E088A9DF0028EFD192
:10E150002A460C21E088A7DFA0F54051023903D000
:10E16000082801D0891EE3D1002070BD00231A4683
:10E170001946A9DF70BD0000A02C0020C832002085
:10E180002DE9F0410746806A1446884688B3002589
:10E1900028E000BFB86A05EB450100EB8106217855
:10E1A00030794A1C2270C01C08F801002078162320
:10E1B000411C217008F8003021783088414400F07B
:10E1C00061F921780844C0B22070B28842B1B168C8
:10E1D00079B14044FDF7D2F92078317908442070B4
:10E1E0006D1CEDB297F82C00A842D3D80020BDE8F2
:10E1F000F081FFE70720FAE700221146FDF7C0BCD7
:10E2000010B508461146AFF3008010BD18B10349A0
:10E21000C860002070470E2070470000C82C002006
:10E2200010B521B1002211461046FDF7A9FCBDE84A
:10E230001040FFF749BA00000021024A0846FDF7E6
:10E24000E5BC000021E2070070B509B18C0701D0E0
:10E25000072070BD064C0125A160628005496360FE
:10E2600010DF0028F5D1257016202EDF70BD0000CC
:10E27000C82C002001E2070018B103490861002002
:10E2800070470E2070470000C82C002010B588B0E1
:10E290000446002000900190029003901A481B4A07
:10E2A00040798DF800001068926804906846CDE9C6
:10E2B000050208790C2807D003221EE0002211462F
:10E2C000FDF75EFC08B010BD8868C278016862F393
:10E2D0001F610191C279416862F31F610291C17AA5
:10E2E000806861F31F60039004A8FEF755FF0028C3
:10E2F000E8D00121FFF721FC024601212046FDF76D
:10E30000D9FF0028DAD1DDE7A02C0020ACE6070019
:10E31000FFF788BEF0B5194C00EBC001A36803EB12
:10E32000810521694A1C0AD001EBC10603EB86076F
:10E330006A687E68B24204D8B21A7A6029622061A3
:10E34000F0BD0C4602E00C46316AD21B4E1C0DD0CB
:10E3500001EBC10703EB870677689742F3D301EB24
:10E36000C10603EB86067768BF1A77606A60296288
:10E3700004EBC40103EB81010862F0BD402C0020D6
:10E3800070B51C4B1A699C681546114607E081421E
:10E3900008D00A4601EBC20604EB8601096A4E1C4E
:10E3A000F5D170BD002EFCD08A420DD105EBC50021
:10E3B00004EB8000006A1861401C05D10E4D01205D
:10E3C000A86000255D61587101EBC10004EB80007D
:10E3D00002EBC202416804EB8202006A1062421C36
:10E3E000DFD000EBC00004EB8000426811444160C4
:10E3F00070BD0000402C0020001001402DE9F041CC
:10E400001E4C2569681C37D01D48002601686069CC
:10E41000081A20F07F4718E0A16805EBC50001EB62
:10E4200080025068B84212D8156AA3693F1A0644A0
:10E4300043B1D2E90601984738B100221146FDF7F1
:10E440009FFB02E0D2E906108847681CE4D1A1785E
:10E45000E078814206D1401CC0B2E070022801D1B0
:10E460000020E0700548E1781C3040F82160BDE8EC
:10E47000F0411420FDF70AB9BDE8F081402C0020DE
:10E48000041501400870000A4870022070470870A7
:10E49000020A4A70020C8A70000EC870042070478D
:10E4A00038B515494888A0F57F42FF3A23D04A780D
:10E4B000124C521CD2B24A70237B93420AD30831C9
:10E4C00075DF002817D0A169002914D001B0BDE87C
:10E4D0003040084700254D70217C29B13B2176DF73
:10E4E00010B1A16901B188476169002903D08DF895
:10E4F00000506846884738BD002C0020B830002006
:10E500000F480068C005C00D13D0103840B2002875
:10E5100006DA00F00F0000F1E02090F8140D03E09F
:10E5200000F1E02090F800044009012803D00328FE
:10E5300003D0022070470020704701207047000080
:10E5400004ED00E042788378521C934200D100220F
:10E550000378934201D1002070470A6041684078F7
:10E5600000EB400001EBC0007047F8B51546069C73
:10E570001E4607460222009400F00AF8002806D141
:10E580003346102229463846009400F001F8F8BDC1
:10E590002DE9FC5F00260C9C994692468B468046EE
:10E5A0002778354632E000BFD8F80400002200EB9F
:10E5B000850069460068019001A865DF00280DD13B
:10E5C0009DF80010514520D10EB1002200E002223A
:10E5D0002078114401441F2902D90C20BDE8FC9F7A
:10E5E00036B9401CC0B2411C217009F800B00126A8
:10E5F000217801A801EB0902694665DF0028EDD109
:10E6000020789DF80010084420706D1CB8F80000B8
:10E61000A842C9DC26B12078C01B401E09F80700BB
:10E620000020DBE710B5084C48DF18B10022114686
:10E63000FDF7A6FAFDF764FB2078022803D0032833
:10E6400001D00428F0D110BD642C0020020000008D
:10E6500000000000000000000000000023D1BCEA20
:10E660005F782315DEEF12120000000001DF0700C3
:10E670000000000000000000020000000000000098
:10E680000000000000000000000000000400000086
:10E69000000000000000000000000000000000007A
:10E6A00025DF07000000000000000000030000005C
:10E6B0000000000000000000050000000000000055
:10E6C000000000000000000000000000ECE6070071
:10E6D000002C0020E000000054B80700CCE7070041
:10E6E000E02C00203027000064B807000000000084
:10E6F000000000000000000000000000000000001A
:10E700000000000000000000000000000000000009
:10E7100000000000000000000000000000000000F9
:10E7200000000000000000000000000000000000E9
:10E7300000000000000000000000000000000000D9
:10E7400000000000000000000000000000000000C9
:10E7500000000000000000000000000000000000B9
:10E7600000000000000000000000000000000000A9
:10E770000000000000000000000000000000000099
:10E780000000000000000000000000000000000089
:10E790000000FFFF00000000320000000000000049
:10E7A0000000000000000000000000000000000069
:10E7B0000000000000000000000000000000000059
:0CE7C00000000000000000000090D003EA
:020000041000EA
:0410140000B0070021
:040000050007B4013B
:00000001FF
