:020000040001F9
:10F00000485100208DF4010095F4010097F40100AF
:10F0100099F401009BF401009DF401000000000040
:10F020000000000000000000000000009FF401004C
:10F030000000000000000000A1F40100A3F40100A2
:10F04000A5F40100A5F40100A5F80100A5F4010054
:10F05000A5F40100A5F401009DF50100A5F401004F
:10F06000A5F40100A5F40100A5F40100A5F4010038
:10F07000A5F40100A5F40100A5F40100A5F4010028
:10F08000A5F4010015F70100A5F40100A5F40100A5
:10F0900039F70100A5F401008DF70100A5F4010086
:10F0A000A5F40100A5F40100A5F40100A5F40100F8
:10F0B000A5F40100A5F4010000000000000000001C
:10F0C000A5F40100A5F40100A5F40100A5F40100D8
:10F0D000A5F40100A5F401000000000000000000FC
:10F0E0000000000000000000000000000000000020
:10F0F0000000000000000000000000000000000010
:10F1000000000000000000000000000000000000FF
:10F1100000000000000000000000000000000000EF
:10F40000DFF80CD000F09AF80048004749270200C6
:10F4100048510020401E00BF00BF00BF00BF00BF1A
:10F4200000BF00BF00BF00BF00BF00BF00BF00BFE4
:10F4300000BF00BF00BF00BF00BF00BF00BF00BFD4
:10F4400000BF00BF00BF00BF00BF00BF00BF00BFC4
:10F4500000BF00BF00BF00BF00BF00BF00BF00BFB4
:10F4600000BF00BF00BF00BF00BF00BF00BF00BFA4
:10F4700000BF00BF00BF00BF00BF00BF00BF00BF94
:10F4800000BF00BF00BFC5D17047000006488047DD
:10F4900006480047FEE7FEE7FEE7FEE7FEE7FEE779
:10F4A000FEE7FEE7FEE70000E1F7010001F40100DE
:10F4B00010B5431A934209D28318881803E010F854
:10F4C000011D03F8011D521EF9D210BD40EA0103CF
:10F4D0009B0703D009E008C9121F08C0042AFAD20A
:10F4E00003E011F8013B00F8013B521EF9D210BDB8
:10F4F000D2B201E000F8012B491EFBD27047002276
:10F50000F6E710B513460A4604461946FFF7F0FF22
:10F51000204610BD421C10F8011B0029FBD1801AA7
:10F52000704730B504460020034600E05B1C934260
:10F5300003D2E05CCD5C401BF8D030BD064C074DDB
:10F5400006E0E06840F0010394E8070098471034B3
:10F55000AC42F6D3FFF758FFA43B0200C43B0200C5
:10F5600030B58C1810F8012B12F00F0301D110F8F0
:10F57000013B120906D110F8012B03E010F8015BE2
:10F5800001F8015B5B1EF9D101E001F8013B521E5D
:10F59000FBD1A142E6D3002030BD00002DE9F05F91
:10F5A00000250127DFF8FCA0A8464FF480762C4602
:10F5B000B946304603F0EEFA48B1DAF8041309FA16
:10F5C00004F0014203D0304603F0DAFA3D43361D21
:10F5D0007F00641CB6B2082CEBD34FF4BE742046F7
:10F5E00003F0D8FA38B1204603F0CAFA2E4845F0A5
:10F5F0000045D0F800802D4E280715D001270024A3
:10F600002F420DD00AEB8401D1F81005D1F8101566
:10F61000C0F3042006EB8402C1F301415268904715
:10F620007F00641C082CEBD3002D36DA0024CB4677
:10F63000B2460AEB0400574690F8540020F0C0058B
:10F640004FEA90190BFA05F6284603F003FB08B3BE
:10F65000284601F0F9FC07EB80004768D7B1A80005
:10F6600000F1A040D0F8000716EA080FC0F30140EF
:10F6700002D0022802D00DE003280BD1B9F1030F0C
:10F6800005D102280BD00221284603F06AFA494628
:10F690002846B847641C042CCBD3BDE8F09F032157
:10F6A000F2E700000060004010050050FC2F002031
:10F6B00000F01F02012191404009800000F1E0208C
:10F6C000C0F88012704700F01F02012191404009EC
:10F6D000800000F1E020C0F80011704700F01F0228
:10F6E000012191404009800000F1E020C0F80012A3
:10F6F00070474907090E002806DA00F00F0000F1F4
:10F70000E02080F8141D704700F1E02080F800141C
:10F710007047000007480021C0F84011C0F84411AC
:10F72000C0F84811C0F84C11C0F80011C0F804111D
:10F7300004F066B8001001402DE9F04186B04FF0AA
:10F74000FF30114D02906846D5E9046802F0ACFB29
:10F75000074602F025FF044647B102AA4146009839
:10F7600002F0C2FB029802F06DFF04E0029802F082
:10F7700069FF00B914B1304601F0C4FD0020687182
:10F7800006B0BDE8F081000040290020084810B50F
:10F79000406840B18047002809D00022BDE81040F1
:10F7A000114600F053BABDE8104002F07DBE10BD16
:10F7B00064290020064802680649102A01D1064A39
:10F7C0000A600068402801D10448086070470000C2
:10F7D00058050040782900200024F4000090D00350
:10F7E0002B4810B400780123062816D12848001DA4
:10F7F0000078000711D1264808300078C0F30310C4
:10F8000003280AD122480C30007810F0F00F04D100
:10F810002048016821F0807101601E487438016839
:10F8200041F470010160BFF34F8FBFF36F8F4FF052
:10F830001021D1F80002002803DBD1F800020028D3
:10F8400023DA154A136015480368002BFCD01523F2
:10F85000C1F800320468002CFCD0C1F80432016801
:10F860000029FCD00021116001680029FCD0BFF301
:10F870004F8F0848F0380168094A01F4E0611143EC
:10F880000160BFF34F8F00BFFDE710BCFFF792BFD1
:10F89000E00F00F0FCED00E004E5014000E4014071
:10F8A0000400FA052DE9FF47584C0026584DE07D2D
:10F8B0004FF0020900284FF492714FF4A27A2846C3
:10F8C00049D003F074F9A0B1C5F824618DF8009017
:10F8D000D5F88004C5F880040390D5F83C058DF870
:10F8E0000800E0680190E674D4E900126846904789
:10F8F0000FE04FF48871284603F059F948B1C5F874
:10F900001061D5F83C05E17CC0B2814201D103F021
:10F9100019FC5146284603F04AF940B1C5F8446144
:10F92000E07C20B1D5F83C05C0B203F00BFC4FF4ED
:10F930009071284603F03BF9002865D0C5F8206196
:10F94000A07C002860D0D5F84C0504B0C0B2BDE85A
:10F95000F04703F0F3BF03F025F94FF401780127D6
:10F96000C0B1C5F82461C5F80883607D00B96F6037
:10F970008DF80090D5F88004C5F880040390E07CF1
:10F980008DF80800E0680190E674D4E9001268463A
:10F99000904713E04FF48471284603F003F968B1EF
:10F9A00003F0BEFBE07C217D884207D1607D00B979
:10F9B0006F60C5F80883207D03F0C4FB4FF48E719F
:10F9C000284603F0EFF858B1A07C218A884202D97A
:10F9D00003F0A2FF04E0C5F81C6108B103F0AEFF1C
:10F9E0005146284603F0DEF800280DD0C5F84461E2
:10F9F000607D00B12F60E07C002805D0207D04B040
:10FA0000BDE8F04703F09EBBBDE8FF8754300020FF
:10FA10000020004002E008C8121F08C1002AFAD1E5
:10FA200070477047002001E001C1121F002AFBD17E
:10FA300070472DE9F84300250646157000781446F6
:10FA40000F4620B1304602F044FF050008D1B078DF
:10FA50004FF00C09E8B12078001D1F2802D9484654
:10FA6000BDE8F883684679DF0028F9D121780322C0
:10FA7000481C20707A5420781922411C21703A5475
:10FA80002178BDF80000394403F06AFF217808446A
:10FA90002070F078022268B120780123411C217087
:10FAA0003A542078411C21703B542078F378411C53
:10FAB00021703B54706890B1217890F90080C81C87
:10FAC0001F28CCD8481C20707A5421780A23481C5F
:10FAD00020707B542078411C217007F80080308909
:10FAE00048B13B460622022106F10800009403F0CB
:10FAF000ACFF0500B4D1308A48B13B460722032150
:10FB000006F11000009403F0A0FF0500A8D1308B8F
:10FB100048B13B461522142106F11800009403F069
:10FB200094FF05009CD1306A28B12246394601F085
:10FB30003DFC050094D1706A28B12246394602F096
:10FB400099FE05008CD196F82C0030B1224639463A
:10FB5000304603F06BFB050082D1284680E710B5E4
:10FB600001220221002001F0ABF808B1072810D1D2
:10FB700007220221012001F0A3F808B1072808D1CB
:10FB800000210A22084601F09BF808B1072800D19D
:10FB9000002010BD064800684FF40021044A81434C
:10FBA000121D1160111D00F4002008607047000054
:10FBB0000405005070B50024064D06E06868012178
:10FBC00010F8340002F0DCFE641C28788442F5D37F
:10FBD000002070BD28290020F8B515460C460646C1
:10FBE000052A01D20720F8BD02F0A2FF18B902F0E1
:10FBF00077FF0028F7D1114900204E600C70086192
:10FC00008D6048610E4D0DE006EBC400296800913F
:10FC100081788DF8011000780A4A694602F0FAFEF0
:10FC20000028E0D1641EE4B2EED2BDE8F8400348FB
:10FC30000021054A0C3000F049B8000028290020B6
:10FC4000A03B02003922020055150200BFF34F8F7E
:10FC500005480168054A01F4E06111430160BFF302
:10FC60004F8F00BFFDE700000CED00E00400FA0537
:10FC7000014B1B6818470000D82F002038B50C46F0
:10FC8000074BA268097802EB420253F82250054A5A
:10FC9000126A0092024604F108002369A84738BDA1
:10FCA0003831002004290020074910B50A7802EBFA
:10FCB000820201EB8201091DFFF7E0FFBDE8104061
:10FCC000042003F0B1BB00006C30002070B5114D72
:10FCD000AC6824B12AB120B100232D780AE00820B5
:10FCE00070BD072070BD00BF03EBC30614F826608B
:10FCF00026B15B1CAB42F7DB042070BD03EBC305F0
:10FD0000012604F8256004EB85046170A26103609C
:10FD1000002070BD402900202DE9F0478146089C55
:10FD20001D461746884698074FF000060AD14DB188
:10FD300003F0D8F92046244CA06184F8008000200C
:10FD4000A5600BE00720BDE8F08700BF00EBC00115
:10FD5000401C05F8216005EB81010E754045F5DB7F
:10FD600008EBC80005EB80010320607001F118006A
:10FD7000002207EB4705E16001EBC203521C1E7035
:10FD80005E709F70586000EBC500032AF4DB4FF0F3
:10FD9000FF302061A670E6701420FFF789FC032174
:10FDA0001420FFF7A6FC1420FFF78DFC0749C1F8CB
:10FDB000009003211120FFF79CFC0448001F0068FD
:10FDC00060610020BFE700004029002008150140C5
:10FDD0002DE9F84304461F480D461746816869B16E
:10FDE0000278944201D2052D02D20720BDE8F883A3
:10FDF00004EBC40211F82230012B01D00820F5E7F2
:10FE0000814601EB8200407801281FD05FF0000698
:10FE100003F0E6FDD9F80C10804601EBC8006946F6
:10FE200003F000FEA0B1012100F8041B0A4910C034
:10FE3000096880E8E200D9F80C10009801EBC801CD
:10FE400048701420FFF74AFC0020CFE72E46DFE77A
:10FE50000420CBE74029002004150140F8B5154CDB
:10FE60000546A06850B121788D4201D30720F8BD26
:10FE700005EBC50110F82100012801D00820F8BDCC
:10FE800003F0AEFD0646E068694600EBC60003F0ED
:10FE9000C9FD60B1022101704560E06800EBC60158
:10FEA000009848701420FFF719FC0020F8BD0420CA
:10FEB000F8BD00004029002010B5184C00224FF476
:10FEC0008031E068FFF784FF18B100221146FFF788
:10FED000BDFE00224FF400412069FFF779FF18B101
:10FEE00000221146FFF7B2FE002242F2666160690D
:10FEF000FFF76EFF18B100221146FFF7A7FE0022A0
:10FF00004FF42031A069FFF763FF002805D00022DD
:10FF1000BDE810401146FFF799BE10BD0028002033
:10FF20002DE9F0430546007D93B00E460024A0B1B4
:10FF300007949DF81C0020F00F00401C20F0F000FA
:10FF400010308DF81C00707B8DF81D009DF81E0090
:10FF500020F00600801C8DF81E001C216846FFF76B
:10FF6000CEFA9DF8000040F002008DF80000297DD7
:10FF700011B140F0100001E020F010008DF80000F9
:10FF8000019403940494287D00B107A8CDE90504E9
:10FF900001278DF8427042F61920ADF840000D940B
:10FFA000B07B8DF83400F07B8DF835009DF836007D
:10FFB000142120F00600801C20F019008DF8360076
:10FFC000307B8DF8440008A8FFF799FA0DF140083E
:10FFD0000DF13409ADF8287011A8CDE90889ADF804
:10FFE0002A40ADF82C700C90A888AB1D08AA694671
:10FFF000A2DF002838D1B06898B38DF8427042F67D
:020000040002F8
:100000000810ADF840000D94307C8DF834009DF858
:10001000350020F0FF008DF835009DF8360020F007
:100020000600801C20F019008DF836000EA8B1687B
:1000300000F0B6FC0646142108A8FFF760FAADF8F8
:1000400028600EA8CDE90889ADF82A40ADF82C60EB
:100050000C90E88805F10E0208A9A3DF002803D15F
:1000600001E0FFE7EC81002013B0BDE8F083000061
:1000700010B50E490E4803F0BEF8C1B20B486838FF
:1000800000F034FA00280FD008280DD0A0F5405118
:10009000043909D043F20141884205D00022BDE86D
:1000A00010401146FFF7D2BD10BD00005C2D0020AE
:1000B0001C28002070B50C4692B000218DF800106D
:1000C0008DF80410072550B1C17849070BD56A4651
:1000D00002A9FFF7AEFC002806D102AE00E0002620
:1000E0006CB1E07810B1284612B070BD01AA0AA91F
:1000F0002046FFF79EFC0028F6D10AAA00E0002265
:100100009DF804309DF80010304672DFECE70000E7
:100110002DE9F0410D4606991646040010D07EB137
:100120004648002720224771C0E903313146444840
:10013000FFF7BEF94248C16829B1016919B103E06E
:100140000E20BDE8F0810772816909B1C16901B96A
:10015000077500F0DDF83A493031A1F11000016077
:100160002031816030215038FFF7C9F934482178B7
:1001700030380170A1788170E178C1706178417088
:10018000D4E90412C0E90412D4E90212C0E902124F
:10019000D4E90612C0E90612616AB9B100F1A00102
:1001A00000F1AC0241628A60636A1B880B80616A5D
:1001B000436A898899800021436A04E0666AB668C8
:1001C000765C5654491C9E888E42F7D8A16AD9B1F4
:1001D0001B4AA832A2F10C018A608162A36A9B8843
:1001E0008B80A16A836A098819800021836A04E0F0
:1001F000A66AB668765C5654491C9E888E42F7D82B
:1002000094F82C1080F82C10216A49B10B49143154
:100210000162226A52884A80216A026A0988118032
:10022000616821B10549C91D416061684160294685
:10023000BDE8F04102483038FFF73CBF6828002095
:10024000C82D002010B50288224C102A16D000219B
:10025000112A19D0192A16D18079002813D1607972
:10026000012821D0022830D003280CD12171E26866
:100270000846002A07D0BDE810401047017D01293B
:1002800001D18088208110BD617013490979A17165
:10029000808821898842F6D1012011E02169002956
:1002A000F1D0BDE810400847A07940B109481930A5
:1002B00002F0A6FC18B1A079401EA071ECE7022064
:1002C00000F04AF80028E9D110BD02202071032077
:1002D000F6E7000068280020C82D002010B502288D
:1002E00001D0032810D1094C207800280CD0002020
:1002F0002070607900F030F8002805D021690029CD
:1003000002D0BDE81040084710BD0000682800205A
:10031000024800218161818381777047682800202D
:100320000B4810B50078012810D10A4C607868B9E4
:10033000607910B174DF002809D101206070607904
:1003400000F00AF810B1216901B18847002010BD02
:10035000C82D0020682800202DE9F047614C88B0A6
:100360000026607106A8069602F0AAFC012708285C
:1003700005D0002879D1069810B127709FE0069625
:10038000FFF7C6FF584DDFF85C914FF00208687820
:1003900009F1180938B16079012813D1E16831B148
:1003A000E770072088476079012802D00AE0E670EC
:1003B00001E0687820B109F1010002F021FC08B9E0
:1003C00084F80580287A4FF0030A20B96079022862
:1003D00001D184F805A0287D20B96079032801D1D6
:1003E00066712671E16841B16079022801D0032865
:1003F00003D1287808B16078B8B1A6701821684692
:10040000FFF77DF88DF8006001968DF8086003967F
:10041000607901280DD0344F04262037A7F1500908
:10042000022810D0032840D12EE0A770062088476C
:10043000E4E7ADF81260CDF804908DF80070ADF8E7
:100440001060277133E0288AADF81200A889ADF852
:1004500010002548203003F055FB18B1287808B16A
:10046000607818B184F804801FE029E01E488DF8F8
:100470000880039789F8036000213038FFF71AFEDF
:1004800000281DD1267110E0288BADF81000A88B34
:10049000ADF812001448203003F034FB18B128786E
:1004A00008B1607878B184F804A0607918B1684622
:1004B00073DF002804D1E16809B120798847002062
:1004C00008B0BDE8F08708488DF80880039789F8E0
:1004D000036000213038FFF7EDFD0028F0D1052042
:1004E0002071E2E768280020C82D002073B586B08F
:1004F00004469DF81C10227C00208A422AD0002548
:1005000001260095ADF8006007A8ADF802500190F3
:100510002174E188608A6A46A4DF00281AD1608AC3
:10052000A0F57F41FF3917D0207DA8B10295039532
:1005300004950595E088ADF80800BDF80200ADF817
:100540000C0001988DF80A60CDF810D00590608AF3
:1005500002A9A6DF08B070BD0820FBE738B5044645
:10056000086820604FF6FF70608208792075FF20D0
:10057000207401208DF8020041F60F000D46ADF801
:100580000000221D69460120A0DF002803D1294672
:100590002046FFF7C5FC38BD08B50A88102A17D0D9
:1005A000112A17D0502A18D1027D002A15D031F80F
:1005B000062F43899A4210D10A8B022A0DD1026874
:1005C000002A0AD0897E11F0010F07D0002106E031
:1005D000898801E04FF6FF71418208BD01218DF845
:1005E00000106946904708BD70B5054601461C22BB
:1005F0001048FEF75DFF104C00262670286838B1C1
:100600000168A1604068E06004F108007ADF02E060
:10061000094808307BDF00280BD14FF6FF7060805F
:100620006670BDE8704004480021044A001DFFF7D1
:100630004DBB70BD902E002088280020813902001B
:1006400070B5204C068800251D49E289102E16D071
:100650000B46112E5B681ED0122E2BD0502E19D1B6
:1006600030F8061F914215D1018B022912D1807EEC
:1006700010F0010F13D0BDE8704000F0DDBE83889C
:100680004B80D0F816300B61D0F81A0048614D70DD
:10069000002AF0D070BD4FF6FF7048804D701846AC
:1006A000FFF7DCFB0028F5D0A1690029F2D0BDE8F6
:1006B0007040084750F8062F0A6140684861DAE741
:1006C00088280020902E00207FB5044601208DF858
:1006D000060041F60A00ADF80400454A01A90120D0
:1006E000A0DF00287ED1228804F13C0552B14048A9
:1006F0002B46801C009042F62920616800F0ACFC7B
:10070000002873D1228952B139482B460A30009013
:1007100042F62420E16800F09FFC002866D1228A7E
:1007200052B133482B461230009042F625206169C1
:1007300000F092FC002859D1228B52B12C482B4654
:100740001A30009042F62720E16900F085FC00286D
:100750004CD1228C52B126482B462230009042F6D2
:100760002620616A00F078FC00283FD1228D52B12A
:100770001F482B462A30009042F62820E16A00F0FC
:100780006BFC002832D1216B71B102A802F095FFF9
:1007900017482B4632300090082202A942F6232047
:1007A00000F05AFC002821D1606B58B110492B464B
:1007B0003A3100910279016842F62A2000F04CFC9F
:1007C000002813D1A16B81B102A802F05BFA08489E
:1007D0002B4642300090072202A942F6502000F03A
:1007E0003BFC00E002E0002800D1002004B070BD16
:1007F000A028002070B5044600F0BCFF2146134835
:1008000000F082F8114821461838FFF7C5FE20464F
:10081000FFF716FF204600F089F920880C4D1028BC
:1008200002D011280DD109E0072000F06BFA18B1B1
:1008300000221146FFF70AFAA08801E04FF6FF7088
:10084000A8802046BDE87040FFF7FCBC0C2D0020BE
:100850000028002030B50446008C8BB0A0F57F4204
:10086000FF3A23D005AA204601F0D5FD0546ADF894
:100870000000002001900290039004902189ADF8BF
:1008800004100121ADF808008DF8061005A8CDF878
:100890000CD00490208C01A9A6DF002804D1BDF85B
:1008A0000010A94200D00C200BB030BD0820FBE79F
:1008B00038B5044608682060087960714FF6FF700B
:1008C0002084002084F82200A4F84C0001208DF838
:1008D000020041F60D000D46ADF80000A21D69466C
:1008E0000120A0DF00280ED12946204601F032FD6C
:1008F000002808D1A86828B12946204600F088F8C9
:10090000002800D1002038BD08B50A88102A14D06C
:10091000112A14D0502A15D131F8062F83899A4212
:1009200010D10A8B022A0DD10268002A0AD0897ED2
:1009300011F0010F07D0002106E0898801E04FF691
:10094000FF71018408BD01218DF8001069469047B0
:1009500008BD70B50446B0F84C000D4614280AD105
:1009600004F126012622881EFEF7A2FDB4F84C00F1
:10097000401EA4F84C00B4F84C0004EB4001401CAD
:10098000A4F84C008D8470BD80F82210704770B5BB
:1009900004460D460846FEF7BDFD2080656070BD2B
:1009A0000A78027049784170022070471CB5002314
:1009B00048221449082002F065FD18B100221146B2
:1009C000FFF744F900200090019001208DF800000D
:1009D000684660DF18B100221146FFF737F90A4870
:1009E00002F046FD18B100221146FFF72FF9074823
:1009F00002F060FD002803D000221146FFF726F91F
:100A00001CBD0000AC2C0020F5070200A936020036
:100A1000F0B58FB00D4606461C216846FEF76FFD07
:100A200000249DF80000039440F002008DF80000BF
:100A3000012701948DF8367042F63820049405940D
:100A40000694ADF834000C94E87B8DF83000287CD7
:100A50008DF831009DF83200142120F00600801C32
:100A600020F019008DF8320007A8FEF748FD0DA808
:100A700007900CA8ADF824700890ADF82640ADF8AA
:100A80002870A8680B90F08806F1100307AA694641
:100A9000A2DF0FB0F0BD00001CB5044681786A46A5
:100AA0000C4802F01FF9002813D160780A49C0EB06
:100AB000C00001EB80001C231A46694602F0B2F91F
:100AC000054806494C30807A51F820202146684676
:100AD00090471CBDFC2800208C2F0020583B0200B2
:100AE0007CB5114E0C004FF00005306015D0694602
:100AF000002000F0AFF8002815D101A9012000F076
:100B0000A9F800280FD19DF8041009B1022003E0D4
:100B10009DF8001001B10B202070706810B9FFF72C
:100B20001EF8054628467CBD6028002010B51A4CEA
:100B30000188606810290ED011292BD1401E6060F9
:100B400028D1FFF70CF8002824D02168002921D0F3
:100B5000BDE810400847D0B900210122084600F046
:100B6000AFF808B107280FD107220221012000F0B9
:100B7000A7F808B1072807D104220221002000F0BD
:100B80009FF820B1072802D0216801B1884760682A
:100B9000401C606010BD00006028002010B50320DC
:100BA00000F0FCF908B1062800D1002010BD0000BB
:100BB0002DE9F04707460024234802E0641C042C7A
:100BC0003FD250F82420BA42F8D1042C39D2DFF8B1
:100BD0007C90DFF87C80A9F11006F06939B3012917
:100BE0000ED002292DD104EB440040444578002D5D
:100BF00027D0F168002924D02846BDE8F0470847EF
:100C000004EB440118F80150884498F8011049B1E8
:100C100071680E4A01EB810149000F3AFFF7D8F8DD
:100C200000B9777098F8021009F80410DFE7FFF7B1
:100C300015F904EB4401414419F804008D78A842E9
:100C4000D5D0BDE8F0870000143B020050280020FA
:100C50008C2D002004280CD2074A1268074B13F889
:100C6000203001209840904300D0012008700020DF
:100C700070470020FAE7000010050050143B020006
:100C800010B5042807D0072812D00A2814D1BDE8CF
:100C9000104002F0AFBB09481321808876DF09E0DD
:100CA000002809D00022BDE810401146FEF7CEBF53
:100CB000FFF736FB0828F3D110BD00000028002004
:100CC00070B50023042810D20D4D00EB4004012A1A
:100CD00002D101290CD00022094E00EB4000304423
:100CE00061B1012906D0022906D00723184670BD3C
:100CF0000D30C2B22A55F9E74270F7E78270F5E786
:100D00008C2D0020044A01460020127AD20702D01E
:100D1000084600F055B870474028002070B50E46D0
:100D20002149054600204E60C1E90252A9071BD5A2
:100D30000024012211462046FFF7C2FF641C042C48
:100D400002D20028F5D00FE070B9720804211748CC
:100D5000FEF742FF40B9FEF72DFF28B91248144AAA
:100D600000211C30FEF7B2FFE9070AD0114A4FF408
:100D7000F01111600F4B00221B1D1A600D4A10323A
:100D8000116000280FD108480B4A00211430FEF7EB
:100D90009DFF002807D1BDE8704003480121074AA4
:100DA0001830FEF793BF70BD40280020243B02009E
:100DB000D90F0200080500508D25020095FB0100A7
:100DC0002DE9F05F07467448DFF8C89100224168BA
:100DD00009F10404251DD0F814C04FF4A01A4FF4F3
:100DE00000334FF4802B01EB810E1646182F12D2E0
:100DF000DFE807F00C121233445360757780778078
:100E00008B8F8F8F8F8FB1B9BFC5CBCB4FF4B01104
:100E100021602E600670A3E0C4F800A02E60D9F80F
:100E2000002082F4F012920309D523602E60022F75
:100E300002D14FF4E16209E04FF47A6206E02B60E0
:100E40002660022F34D000BF4FF4C87207706420B0
:100E5000B2FBF0F0414300223CE0C4F800A02E6059
:100E6000D9F8002082F4F012920304D523602E609A
:100E70004FF44872EAE72B60266019E0C4F800A03E
:100E80002E60D9F8002082F4F012920302D523607C
:100E90002E60D1E72B602660D6E7C4F800A02E6054
:100EA000D9F8002082F4F0129203E4D523602E607A
:100EB000C822CBE7C4F800A02E60D9F8002082F445
:100EC000F012920302D523602E6001E02B602660B1
:100ED000077018E06046FEF77BFF024640E051468F
:100EE00043E0D9F800002BEA0002226000F48020E1
:100EF000286008E0D9F800002BEA0001216000F426
:100F00008020286071460022E4E74FF4F01028604A
:100F10001FE080468069FEF7A1FF0246D7F111006D
:100F20004FF4002700D012B127602E6018E001288E
:100F30000ED9C82110FB01F16420B1FBF0F1D8F803
:100F40000420D8F8180051430022FEF741FF024662
:100F50002F60266004E04FF4F01121602E600770CE
:100F60001046BDE8F09F4FF4E01121602E602B6029
:100F70000EE04FF4D01121602E60594607E04FF487
:100F8000C01121602E60891001E04FF4F01129603A
:100F90002660E4E7040500504028002070B50021D9
:100FA0000C4D012455F82120920002F1A042D2F804
:100FB000006704FA01F3034000D0032326F440360F
:100FC00046EA0343C2F80037491C0429EAD300204B
:100FD00070BD0000143B020000780221FFF7E8BD5D
:100FE00005494FF0FF3201EB800308285A6002D315
:100FF000084480F84C207047FC2F0020F0B54FF0DB
:10100000FF3512B10023082601E008230C260D4C01
:1010100006E000BF04EB83077F687F1C04D05B1CE5
:10102000B342F7D32846F0BD26185DB286F8345097
:1010300004EB8306002A7160F4D1E11881F84C00BA
:10104000F0E70000FC2F00200249084490F934002A
:1010500070470000FC2F00202DE9F0438FB01E46A2
:10106000DDF8589015460F00804604D10022114645
:101070001046FEF7EBFD25B9002211461046FEF79B
:10108000E5FD1C216846FEF73AFA00249DF80000B1
:10109000039440F002008DF80000012001948DF8C7
:1010A0003600049405940694ADF834800C9430789E
:1010B0008DF8300070788DF831009DF832001421E1
:1010C00020F00600801C20F019008DF8320007A8DF
:1010D000FEF715FA0DA807900CA808900748ADF880
:1010E0002450ADF82640ADF828500B974B4607AA80
:1010F00069460088A2DF0FB0BDE8F083A028002079
:101100002DE9F0413B48017801EB810100EB8104BE
:10111000D4E9030600EB40013648241DCC3000EB37
:101120008100B0F808804589476801F04FFEB6FBA2
:10113000F0F100FB116088B35FF0000008FB057759
:101140006188A288DFF8B08011448D190022C8F8A8
:10115000102040B101F03AFE6188884221D0BD42A2
:1011600001D1A088E8B1A06802281AD001F02EFEB3
:10117000A18844463144B1FBF0F200FB1210800814
:10118000C8F80C0001F022FEB5FBF0F100FB115095
:1011900078B10020BD4228D068B126E0FFE70120E9
:1011A000CCE701F013FEB6FBF0F10320C8F81410F1
:1011B0001CE00120EEE7ADB2BEB201F007FEB6FBC7
:1011C000F0F701F003FEB5FBF0F0874201D1701B90
:1011D00009E001F0FBFD064601F0F8FDB5FBF0F17A
:1011E00000FB1150301A800820610220BDE8F04158
:1011F00002F01AB96C30002004290020064801785A
:1012000001EB810100EB81000079042801D000F09E
:1012100059B8012002F008B96C3000200A480B4A86
:10122000017801EB810100EB8100C1881162007936
:10123000012805D0032801D0042804D1FFF760BF9E
:10124000012002F0F1B870476C3000200429002022
:1012500000EB80020548002100EB820001220171B1
:10126000C180C0E903214161018170476C300020D9
:101270002DE9F041114D069E6C780A2C1BD02F7879
:101280003C440A2C00D30A3C04EB840405EB8404A0
:1012900020716261D1E90001C4E90301E380268184
:1012A0006878401C68700648007808B9FFF7B6FFF8
:1012B0000020BDE8F0810420FBE700006C30002036
:1012C0000429002010B50E4C207800EB800004EBC0
:1012D00080010020091DFEF7D1FC2078FFF7B8FF40
:1012E0006078401E60702078401CC0B220700A28D0
:1012F00001D100202070BDE81040002002F094B819
:101300006C3000202DE9F05F254801694A1C41D06E
:10131000826801EBC101DFF88CB002EB81018146EC
:101320004E68DBF8004047690079E11B21F07F45FA
:10133000ED1CB0B9DFF870804FF48030C8F844037A
:10134000C8F804031120FEF7B3F91120FEF7BBF92A
:101350004FF0010AC8F800A02F20FEF75BF889F8CB
:1013600004A0B54200D235460E49E8193C3120F0C0
:101370007F400860DBF80010001B091B21F07F4153
:1013800020F07F40C91C814208D9BDE8F05F1120E0
:10139000FEF7A4B9BDE8F05F01F0A4BEBDE8F09F80
:1013A0004029002004150140001001402DE9F041C2
:1013B00013780646981D14460D461F2802D90C20A6
:1013C000BDE8F0813188072206290AD34FF4486C22
:1013D0004FF6FF77614501D9B94202D170880628DE
:1013E00001D21046ECE7604501D9B842F9D1B942C3
:1013F00003D0B84201D08142F3D8581C0521207097
:10140000E95420781222411C21702A542078411975
:10141000308802F0A5FA21780844C0B22070411942
:10142000708802F09DFA2178084420700020C7E7F8
:1014300000221146FEF70ABCF8B5124801F070F818
:10144000104D0026104C103D30B16169B1B1012042
:101450008DF80000684610E0287820B1616969B114
:101460008DF80060F6E7687850B1A16800226868DE
:10147000FEF7AEFC10B1A16901B188472E70F8BD2E
:101480006168F3E798280020902E002070B5094B82
:10149000044608209E7A00250E4208D0A4F57F401D
:1014A000FF3802D01889A04202D10020156070BD1B
:1014B000052070BDCC2F002000EB40020748012121
:1014C00000EB820081724FF6FF710181FF21C17232
:1014D000002101608180817170470000CC2F0020C5
:1014E00010B5134C207900071ED46069401C606160
:1014F000E06808B104200AE001F020F808B10220F9
:1015000005E0206960B16068C10704D00320BDE830
:10151000104002F0BFB840F0010060600020F6E724
:10152000BDE81040FFF76ABEBDE8104002F0A8B861
:101530000429002006494868020707D4820702D51B
:1015400040F001004860022002F0A4B802F098B810
:10155000042900202DE9F04100260125144C22E049
:101560006068626900EBC607387805FA00F111423D
:1015700017D08A43626101F0A9FA024638782369DC
:1015800005FA00F1194002FA00F3994209D179787D
:10159000012901D0012100E0002151407A6802B107
:1015A0009047761CF6B220788642D9D3BDE8F08108
:1015B000282900202DE9FC410E46044681786A4620
:1015C000254801F08FFB002828D16078234F00EBDD
:1015D000400007EB8000807A400621D4022E1FD005
:1015E000012E1FD01E4DA0781E49C0EBC00001EB9C
:1015F000800100231C226846A847A8B1022E0DD006
:101600002078164900EB40000C3101EB80001649B0
:10161000807A51F82020214668469047BDE8FC8139
:10162000124DE0E7124DDEE7022EF7D0607800EBB6
:10163000400007EB8000817A21F040018172074968
:1016400060784039C0EBC00001EB80011C231A46D2
:101650006846A847D4E70000FC280020CC2F0020D3
:1016600009360200C82E0020483B02003930020033
:10167000752F02002DE9F04705250F4F904689464A
:1016800006460024C4EBC40007EB800036B10722F5
:1016900031461030FDF745FF18B106E0018B41459A
:1016A00003D10025C9F8004002E0641C072CE9D3EF
:1016B0002846BDE8F0870000C82E00207CB505460E
:1016C00081B26A46074801F00DFB040008D174217D
:1016D000684601F02DFB040002D1284601F09AFA79
:1016E00020467CBDFC28002010B5100003D000224D
:1016F0001146FEF7ABFA002010BD00001FB58DF8B3
:101700000C0001F069FB18B100221146FEF79EFAA9
:1017100003A800F069FA18B100221146FEF796FA04
:101720000020CDF805008DF809009DF805006946F8
:1017300020F01E0040F001000C3020F020008DF859
:10174000050007208DF8060010208DF807000748D7
:10175000009001208DF80400054800F071FB00287E
:1017600003D000221146FEF771FA1FBDE9160200F0
:10177000022800202DE9F04F054693B0FB48FF24D6
:101780000E9400784FF0000A00285AD0DFF8E0836A
:10179000D8F80000002854D001A800F019FA18B1B8
:1017A00000221146FEF752FA281D05902A20ADF8B6
:1017B00018000027FF208DF806008DF804700097B0
:1017C000EB4C28880C3CBB4610280FD0A8886A46F2
:1017D0000221FFF75BFE48B9009800EB400104EBE3
:1017E0008101C97A8DF806108DF80500DFF8809325
:1017F0002888A9F14C09132109F11C02A2F1E00685
:10180000172875D010DC10281ED011285ED01328A0
:101810006FD0142815D1009800EB400004EB800035
:10182000C07AFF287DD09AE0D24B182877D01C28A8
:1018300076D0522805D198F80A0053F8201001A854
:10184000884713B0BDE8F08F4FF6FF766A46012156
:101850003046FFF71BFE0028F3D10099022201EB6E
:10186000410004EB8000827211228DF810208DF867
:101870000510A9880181D5F8061001606989818069
:10188000297B8171687DC10708D0B849083101EB17
:1018900050000078FF2808D00E9006E032460EA9CE
:1018A000A81DFFF7E7FE00280FD100990E9801EB65
:1018B000410104EB8101C8728A7A42F008028A72FF
:1018C0008DF8060001A8FFF7E7F86BE1009800EB40
:1018D000400004EB8001887A20F002008872010742
:1018E00008D500060FD5002101A8FFF763FE0AE026
:1018F000B8E043E09DF80600FF2804D001F08AF923
:10190000FF208DF806000099102001EB410104EB47
:101910008101887212208DF8100043E101E0F9E0A6
:101920003EE1EA890EA90020FFF7A4FE78B90099EC
:101930000E9801EB410104EB8101C8728A7A42F0F2
:1019400008028A728DF8060001A8FFF7A5F8009832
:1019500000EB400004EB8000C07AFF2804D0009820
:10196000C0EBC00109EB810A00980023C0EBC00066
:1019700006EB8002A888514682DF62E700988DF866
:10198000101000EB400104EB81018B7A43F004035B
:101990008B72CB7AFF2B32D0162100EBC0008DF872
:1019A000101002EB80001A210830FDF7A8FD009806
:1019B00000EB400004EB8000817A41F0400181722D
:1019C0000099CDF82CB001EB410204EB820208AB88
:1019D000D27ACDF828B0C2EBC20206EB8202CDE982
:1019E0000C2BC1EBC10209EB8201CDE9081BA888D1
:1019F00008F1040200217FDF0028BED1D2E00DF102
:101A0000380C48F243020020C0EBC00306EB83030E
:101A10009B7EFF2B04D0401C0728F5D31746CFE749
:101A20000A78022A0CD0C0EBC00206EB8202FD232A
:101A300093760B6813618B8893828979917505E0A1
:101A4000C0EBC00106EB8101FE228A768CF8000013
:101A500000990E9801EB410104EB81018DF806001D
:101A6000C872ADE798F8091021F0010188F8091053
:101A7000DDF800C00CEB4C0304EB8300817A21F00D
:101A80000402827214218DF81010A97921B1C07A54
:101A9000FFF714FEAF7985E0E979490739D59DF85C
:101AA0000610FF297ED042F008028272EA7A92077D
:101AB00007D5C1EBC10206EB8202957E25F0010538
:101AC0009576C27AFF2A6DD014F82320022A0ED010
:101AD000C1EBC10106EB810102680A6182888A823A
:101AE00080798875887E20F0020088760DE0CCEB46
:101AF000CC0209EB8200428AC1EBC10006EB8000F8
:101B00000283817E21F001018176012101A8FFF786
:101B100051FD47E0A8790121B1EB101F2CD100F055
:101B20000F00012828D1009800EB400104EB81014F
:101B3000897A090720D500EBC00002EB80001A214A
:101B40000830FDF7DCFC16208DF81000009800EB43
:101B5000400004EB8000817A41F06001817298F8C6
:101B6000091041F0020188F8091017E0EC28002064
:101B7000D82F0020683B0200009800EB400004EBE7
:101B80008000817A41F08001817215208DF810006B
:101B900098F80A0053F8201001A88847002701E0B0
:101BA0008DF810103A4604A901A8FEF761F89DF8D7
:101BB000100012287FF4E1AE009800EB400104EB26
:101BC0008101897A01293FF4D8AEFFF775FC38E628
:101BD00030B1FF21017041708170C17000207047E9
:101BE00048F20E00704700002DE9FF4105003AD091
:101BF0002B4800240460447284722046FFF75CFC8A
:101C0000274824213038FDF77AFC0026DFF894803D
:101C1000FF27304600F0FEFF08F80670761C072EFE
:101C2000F7D37420ADF804000720ADF806001E4875
:101C30001C4900900831684601F042F900280FD194
:101C4000184E0120083E3070287878B1BDF80400A5
:101C5000BDF80610484381B206F1100001F068F8A3
:101C600004B0BDE8F08148F20E00F9E70F4F0025FF
:101C70000C48A9B202AA083001F034F848B9C5EB03
:101C8000C50007EB800000231C2202A901F0CAF85E
:101C900008B13470E4E76D1C072DE9D3E0E70000DC
:101CA000D82F0020F4280020B11C0200C82E0020EC
:101CB0002DE9F04F80465E488FB01E460068189FA1
:101CC00093468A46002872D0742F70D86846FFF772
:101CD0007FFF18B100221146FDF7B8FF00248DF8F0
:101CE00000408DF80440CDE905762546A9B20DAA3D
:101CF000504800F0F7FF28B908220DA94046FDF72B
:101D000010FCE0B16D1C072DF0D300BF9DF8020060
:101D1000FF284CD04FF020094FF0400C04ADBAF131
:101D2000030F0FD0444A1C27B11AB1FBF7F101236E
:101D300007291AD20295BBF1000F0BD010E08DF8E5
:101D40000250E3E7742F02D08DF804C067E08DF8ED
:101D5000049064E037498340103949680B425BD0F6
:101D600001F004FE8DF8049046E031494C39A6EBB1
:101D70000108B8FBF7F7DFB101F11C02B11A242703
:101D8000B1FBF7F702F1240147B32C4A8DF804C0E8
:101D9000964244D0A1F5907252F82020B2423BD135
:101DA0000295C97A884227D18DF8014024E033E0BA
:101DB0001F488DF804908DF801400C30CDE90A40A1
:101DC0009DF802000295C0EBC00002EB8000089075
:101DD00007A806901820079105900DE030208DF897
:101DE00001408DF804008DF80330887A800703D411
:101DF00010462421FDF783FB9DF80400BAF1020F81
:101E000012D040F0020000BF8DF804005A4601A92C
:101E100068460295FDF72CFF0FB0BDE8F08F9DF8E6
:101E2000040040F00300EFE740F00100ECE70000A1
:101E3000D82F0020FC280020C82E0020443B0200A0
:101E4000174A10B512785AB148F20E0258B151B182
:101E50000B6843B1134A14683CB148F2040010BD4A
:101E600048F2080010BD104610BD0E4C13602C3C0B
:101E7000D1F8053023634B7A84F8343009799172B4
:101E800023F0050141F002011172D17921F0040122
:101E900041F00301D17100210170084610BD00001E
:101EA000EC280020D82F00200E4910B58A78CC7875
:101EB0000023A24212D0521CD2B28A70022A00D150
:101EC0008B70084A8B781C3252F8232002604869D4
:101ED000104420F07F404861012010BD03600020C5
:101EE00010BD0000402900202DE9F043154E894621
:101EF0000024B768336920E003EBC30107EB8101DD
:101F00004D68854202D9281A486018E0401B2C44CD
:101F100000254D600D751D46D1F810C00B6ABCF14F
:101F2000000F0AD009EB040828F07F48C1E9028CB1
:101F3000D2F800C0C1F820C01560591CDCD1336153
:101F4000BDE8F08340290020002808D0112801D0E6
:101F5000FDF7AABE0248416841F0080141607047A0
:101F60000429002010B51F4C204621784068012923
:101F700010D002292DD0032932D1000725D4606961
:101F8000401C606100F0DAFAD8B12078BDE810405A
:101F900001F04ABA000718D41348A28B017801EB6C
:101FA000810100EB8100C188891A0904090CC180F4
:101FB00003D0BDE8104001F029BBBDE81040FFF799
:101FC00081B9BDE81040FFF719B9BDE8104000F035
:101FD00047BC0648617850F82100BDE81040004732
:101FE00010BD0000042900206C3000208C3B020052
:101FF00028DFFFF7A9BF29DFFFF7A6BF0EB51AA19B
:102000009DF8080020F00F00401C20F0F000103078
:102010008DF80800072202A87CDF18B100221146C3
:10202000FDF714FE40F2413078DF18B1002211466E
:10203000FDF70CFE0020009001904FF4A071ADF868
:102040000400ADF800104FF4C8704FF40271ADF801
:102050000600ADF8021068467ADF002803D000229F
:102060001146FDF7F3FD0EBD4466755F48524D0005
:102070000020704700207047002070472DE9F0478E
:102080004178DFF8A490054601EBC10209EB82001C
:10209000002401EB410109F1240A43682746264642
:1020A0000AEB810163B191F80AC05FEA0C6807D5B9
:1020B0005FEA4C6C04D459F8226000F108049FB226
:1020C0000889D04633463A462146A9DF48F24109FD
:1020D0000B281CD000B14846012E16D168784FF667
:1020E000FF7200EB400008EB80000C210089A7DFA5
:1020F00000280AD0A0F54051023913D0082811D089
:10210000891E0FD011280DD00020BDE8F087687817
:10211000012300EB400008EB80003A46008921468D
:10212000A9DFDBE74846F0E7A82F002070B50C4692
:10213000014660780A4D00EBC00005EB80003823B3
:10214000242200F06FFE002808D1617801EBC10164
:1021500005EB81014A68521C00D14A6070BD000045
:10216000A82F00202DE9F04188B0804603271A20CF
:10217000ADF81C0048782A4E00EB400006EB8000CA
:102180000D4600893B4607AA6946AADF28BB687846
:10219000A6F1240400EBC00004EB8000BDF81C2075
:1021A00069460830FDF7BDF90028687807D000EBD4
:1021B000C00004EB8001496881B11A4E0FE000EBCA
:1021C000400106EB8101897A890724D400EBC00025
:1021D00004EB80002421FDF792F91CE0124E44F834
:1021E00020706878BDF81C2000EBC00004EB800074
:1021F00069464260687800EBC00004EB800008305C
:10220000FDF756F96878382300EBC00004EB800135
:1022100024224046B04708B00020BDE8F08100000D
:10222000CC2F002039300200752F0200FFF726BFA7
:10223000FFF77CBFFFF796BF70B5114C064601252E
:10224000B540E068FDF70AFE00280CD1616929421B
:1022500007D1304600F03AFC0028206904D028431A
:1022600003E0A943616170BDA84320616069284310
:102270006061D4E90210BDE870400022FDF7A8BDFE
:102280002829002070B51B4C207900072DD41A484E
:10229000017801EB810100EB81052E6900F096FDCC
:1022A000E9882A89761E11443144B1FBF0F0216996
:1022B000002549B16169814206D1E560606840F05E
:1022C00001006060002008E000F038F910B1022041
:1022D000E56002E0206920B10320BDE8704001F014
:1022E000D9B9BDE87040FEF789BFBDE8704001F084
:1022F000C7B90000042900206C30002010B5134934
:10230000134800F078FF124C81B2243CA068401CB6
:10231000A0600E486038FEF79DFA68B108280BD01F
:10232000A0F54051043907D043F20141884203D05F
:1023300000221146FDF78AFCA0680321B0FBF1F2F0
:1023400001FB120000B10120207010BD6C2D002097
:102350002428002070B594B00024054607949DF809
:102360001C000E4620F00F00401C20F0F000103042
:102370008DF81C00087B8DF81D009DF81E001C21A7
:1023800020F00600801C8DF81E006846FDF7B7F8A7
:102390009DF80000019440F010008DF8000007A89F
:1023A000CDE9044001208DF84E00039442F6372019
:1023B0000694ADF84C000D94707B8DF83400B07B22
:1023C0008DF835009DF83600142120F00600801CA1
:1023D00020F0180040F001008DF8360008A8FDF745
:1023E0008EF813A808900DA809900EAA002128467F
:1023F00000F011F8ADF828001420ADF82C000EA85C
:10240000ADF82A400C90E88805F1080308AA69464F
:10241000A2DF14B070BD2DE9F0410446407990462A
:10242000002500B1042594F8220008B145F002050A
:10243000CAB2FF2908D9090A88F8012045F0010528
:1024400088F80210032602E088F801200226B4F87A
:102450004C0008B145F01005002718E0B01C142806
:102460000BD9B4F84C0004EB4701C01B420004F147
:1024700024002431FDF71CF80DE004EB470108EBC4
:102480000602898C1170090A5170C6B27F1CB4F81B
:102490004C00B842E2DC34F84C0FC01B208088F8B6
:1024A00000503046BDE8F081F8B51C4C207800287B
:1024B00032D0206928B10026E06820B1002526B17D
:1024C00012E00126F8E70125F9E7684651DF052803
:1024D00005D030B100221146FDF7B8FB04E001261B
:1024E00002E021690098884795B96088ADF800003E
:1024F0006946A06861DF052805D030B10022114689
:10250000FDF7A4FB04E0012502E0D4E902018847BD
:10251000002EDAD0002DD2D0F8BD000064290020B2
:10252000054940880A88904204D34988884201D8E6
:1025300001207047002070479028002070B50E4899
:10254000017801EB810100EB8104256900F03EFC7C
:10255000E18822896D1E11442944B1FBF0F107483E
:1025600042698A4205D301D1006910B14FF00000E1
:1025700070BD4FF0010070BD6C30002004290020B8
:10258000800701D000207047012070470348017A7E
:10259000C90702D00078FEF713BC7047402800201E
:1025A0002DE9F04726484FF0000980464578D0F8DD
:1025B00010A038E0D8F80C0000EBC50634782FE006
:1025C00004EB44017068641C00EBC100B178E4B214
:1025D000A14200D100240178022902D003291FD191
:1025E00015E04068D8F8081000EBC00201EB820744
:1025F000397DA9B101F0C6F887F8149010E000BF4A
:1026000000EBC00002EB80000375006A04E0D8F81C
:102610000820D8F810004B46471CF1D1C8F810002C
:102620007078A042CCD16D1EEDB2C3D2D8F8101094
:10263000514502D00120BDE8F0870020FBE70000F3
:10264000402900202DE9F04704463D4800278146F7
:102650004678D0F810A067E0D9F80C1001EBC60559
:102660005CE0601C08D02246D9F8080004EBC201E7
:1026700000EB8100046A2FE02878696800EB4002D3
:10268000401CC0B201EBC2012870AA78904200D170
:102690002F704A68D9F808C002EBC2000CEB80002A
:1026A00091F800C0BCF1010F3AD190F814C0BCF110
:1026B000000F35D1D1F808C0C0F808C0D1F80CC05F
:1026C000C0F80CC0D1F810C0C0F810C04969C16191
:1026D00099F8051001B187608368D9F814C0DFF854
:1026E0006480A3EB0C0121F07F41414502D2C36815
:1026F000194407E0ACEB0301C36821F07F418B4232
:1027000002D9591A416000E0476087600121C76023
:102710000175891E0162104600F0FEFF601CA0D109
:102720002878697888429CD1761EF6B294D2D9F87E
:102730001010514502D00120BDE8F0870020FBE7D2
:1027400040290020FFFF7F0096B001F09DF83E4A2F
:1027500040F6CD410320FEF7E1FA18B10022114600
:10276000FDF774FA69460020FEF7BAF918B10022A5
:102770001146FDF76BFA9DF8000002285AD000249C
:10278000FEF714F92046FEF7B9FFFFF737FC3021BA
:1027900001A8FCF7B4FE02208DF8040001248DF896
:1027A000064006208DF80700284803250690ADF85E
:1027B000145020210DA8FCF7A2FE4FF496708DF85E
:1027C0003C401090B42000241190214B0DAA2146CA
:1027D000009401A8FDF79CFC18B100221146FDF7FA
:1027E00035FA00F05FFD00F0CBFC1C216846FCF7D9
:1027F00086FE4FF42030CDE900404FF47020029067
:1028000014488DF80C508089ADF80E0012480590E0
:10281000124806908DF810406846FDF7E5FE18B1A5
:1028200000221146FDF712FAFDF746FB0220FDF7E4
:1028300093FD02E00124A3E748DF0028FCD000223A
:102840001146FDF703FAF7E7810C02003428002057
:10285000B92B02000C2D0020E12B020031140200E4
:102860000348416821F008014160007800F0DCBDB8
:102870000429002070B5054600790E46801C1446D8
:10288000C0B21178821C0A441F2A01D90C2070BDE5
:102890004A1C2270401C70542078FF22411C217079
:1028A000325420788119288801F05AF82178084498
:1028B000C0B22070AA8842B1A96841B13044FCF787
:1028C000F7FD2078297908442070002070BD07208A
:1028D00070BDF8B514780746A01C15460E461F2893
:1028E00003D87878801C1F2801D90C20F8BDC4F1CA
:1028F0001D001FFA80FE3019ADF800E06946801C0B
:102900007DDF0028F2D13878022805D1BDF800001B
:10291000704501D8092106E07878082108B1704592
:1029200001D9BDF80000421C3255641CE2B2801C83
:10293000B1542978084428700020F8BD0020704761
:1029400000207047002070474907090E002806DA6A
:1029500000F00F0202F1E02282F8141D03E000F102
:10296000E02282F8001400F01F020121914040098A
:10297000800000F1E020C0F88012C0F8001170471C
:102980002DE9F0410E46054600F064F901240028C7
:10299000284619D0FEF758FB1B490838084490F820
:1029A00054008009032802D0012805D006E017480A
:1029B0000068AC40204201D1022100E003212846FA
:1029C000BDE8F04100F0CDB800F050F9002818D073
:1029D0002846FEF739FB05460D4F4FF4807007EB94
:1029E000850100EB8500D1F8102580B242F001028C
:1029F000C1F8102500F0C4F8002E02D0AC40C7F892
:102A00000443BDE8F0810000FC2F002010050050B9
:102A1000006000402DE9FC41DFF8A480044608EB8B
:102A20000400002790F934001346C0170E46401CDE
:102A300001D0082740E0F27819462046FEF7DEFA7A
:102A40000546401C37D0B07848B1A00000F1A04046
:102A5000D0F8001721F00201C0F8001707E00021AC
:102A60007378204600910A46019100F069F8F078E9
:102A7000C0B11448317800EB8500D0F81025124B16
:102A80001A40C0F810254FF4F8524FF4403302EAD0
:102A9000042203EA01410A43D0F810150A43C0F8A2
:102AA000102509E008EB0500327810F84C1F41EAC8
:102AB0008211017000E004273846BDE8FC81000067
:102AC000FC2F002000600040FFE0FCFF0349096884
:102AD000C14011F0010000D00120704710050050E6
:102AE00070B5114D287808B1082070BD0020411E36
:102AF0002A18401CC0B282F834102028F8D30024D1
:102B00002046FEF76DFA641CE4B20C2CF8D30121C8
:102B10000620FFF719FF05494FF00040C1F80403F4
:102B200001202870002070BDFC2F002000600040B4
:102B300002480078002800D001207047FC2F0020B8
:102B400030B541EA4201DDE9034541EA83018000F5
:102B500041EA042100F1A04041EA0541C0F8001714
:102B600030BD800000F5E06000F1A040026822F472
:102B700040320260026842EA014101607047000091
:102B8000034908B50844002101600068009008BDB1
:102B90000060004002494058012800D000207047E2
:102BA000006000404058002800D001207047405885
:102BB000002800D00120704710B558B102280DD16F
:102BC000FEF7A0F8002809D00022BDE81040114609
:102BD000FDF73CB8BDE8104000F00CBC10BD000093
:102BE0000078002809D105483B21808876DF00283D
:102BF00003D000221146FDF729B8704700280020B5
:102C00000021425C0AB101207047491C0629F8D313
:102C10000020704770B50546C0EBC5010C48002682
:102C200000EB81042046C4F81160A4F8156010215F
:102C3000FCF765FCFF202074A0764FF6FF70208320
:102C4000284600F093FE02481C3840F8256070BD0D
:102C5000C82E00200449084490F93400082801DBFC
:102C60000120704700207047FC2F002004490844D1
:102C700090F93400082801D20120704700207047E5
:102C8000FC2F002070B50D00044604D1002211462F
:102C90001046FCF7DBFF24B9002211461046FCF772
:102CA000D5FF2878207069886170090AA170A98809
:102CB000E170090A2171E8886071000AA07170BD95
:102CC00006490979490701D40820704720B1044911
:102CD00049780160002070470E20704704290020C9
:102CE0006C30002030B5104B1B795B0701D40820F5
:102CF00030BD18B112B104687CB901E00E2030BDBE
:102D00000A4B1D684DB140681D8901FB05005968DB
:102D10005B8903FB0511814201D8072030BDC2E960
:102D20000040002030BD0000042900203831002080
:102D3000F8B5054621480E460079400701D4082021
:102D4000F8BD15B1286870BB01E00E20F8BD1C4C21
:102D50000027206838B361892289606801FB02017D
:102D6000686881421FD9FFF70BFC70B1D5E90002FA
:102D700000EB400004EB800043680189D41AB4FBE7
:102D8000F1FC01FB1C4474B901E01020F8BDB6FB56
:102D9000F1F401FB146434B92EB14089324400FBD4
:102DA0000130824201D90720F8BD3346002229466E
:102DB00003200097FEF75CFAF8BD0000042900200C
:102DC000383100204FF08050406970474FF08050FC
:102DD000006980B27047000070B510480024254695
:102DE000047044702846FEF733FA6D1C0A2DF9D39F
:102DF0000B4D6C80FFF7E6FF861EFFF7E7FF4643AB
:102E00000648AE60CC306C610460048144812C7053
:102E1000AC610420EC616860002070BD6C30002063
:102E2000042900202DE9F843804623481F46164612
:102E300000790D46400702D40820BDE8F8832DB183
:102E4000B8F1000F02D0286898B901E00E20F4E72D
:102E50001A4C206868B162892089616802FB001100
:102E60006A68914205D926B1B04202D3F119814274
:102E700001D90720E1E74046FFF782FBD0B1384691
:102E8000FFF77EFBB0B16868FFF77AFB90B1686826
:102E90003246C1194046FCF70BFB00962868002219
:102EA00000EB4000434654F8204002212846A0474A
:102EB0000020C2E71020C0E704290020383100209C
:102EC0002DE9F041294D04460E462879400702D4E9
:102ED0000820BDE8F081ECB1E6B12068D0B1FFF781
:102EE00075FF0146A088814212D3102810D3E088D4
:102EF00070B1FFF767FF471EFFF768FF4743E2889F
:102F0000A188A86802FB0102974201D3890703D078
:102F10000720DEE70E20DCE76988012923D0C6E917
:102F20000010134A01EB410302EB83014860206863
:102F300042F82300A0880881E0884881FFF746FF17
:102F40000146A088E2885043401E90FBF1F4641CC7
:102F5000FFF73CFFA96804FB0010A8606888401CCC
:102F600068800020B5E70420B3E7000004290020B2
:102F700038310020F8B504461C481E461546007935
:102F80000F46400701D40820F8BD1FB114B12068D6
:102F900098B901E00E20F8BD1548016869B1428971
:102FA0004168008902FB00116268914205D925B190
:102FB000A84202D3A919814201D90720F8BD384699
:102FC000FFF7DEFA78B13046FFF7DAFA58B16068F9
:102FD000FFF7D6FA38B12B463A4621460120009633
:102FE000FEF746F9F8BD1020F8BD000004290020C6
:102FF000383100200F4902460878002819D00428EB
:1030000017D0022A13D0032A13D10A7912070ED43B
:103010008A69521C8A61062A06D0022801D000F073
:1030200003BA487800F036BB0D20FCF73DBEFEF732
:1030300099BF704704290020F8B504461C481E4675
:10304000154600790F46400701D40820F8BD1FB18E
:1030500014B1206898B901E00E20F8BD1548016848
:1030600069B142894168008902FB0011626891429E
:1030700005D925B1A84202D3A919814201D9072057
:10308000F8BD3846FFF77CFA78B13046FFF778FA9A
:1030900058B16068FFF774FA38B12B463A462146BA
:1030A00004200096FEF7E4F8F8BD1020F8BD0000FB
:1030B0000429002038310020084810B50078002885
:1030C0000BD0064806492C3000F095F881B2044830
:1030D000BDE810407038FDF73CBC10BD0028002052
:1030E0007C2D002070B5012670044FF0E0210025F2
:1030F000C1F88001084C4010C4F84803C4F8080324
:1031000066602F20FCF786F9A660044C2F206561CD
:10311000FCF780F9257170BD0010014040290020A6
:1031200006480021C0F80811D0F818150448037D9E
:10313000C268D154017D491C0175704700200040D0
:10314000543000201FB501218DF8080005488DF886
:103150000010C16801910021C174D0E900126846D5
:1031600090471FBD543000200348417881F0010191
:1031700041700248FDF708BC002800200C2D0020FB
:1031800070B515480124512164258460C0E90015FB
:1031900004730146114800F023F80F488C211030C9
:1031A000002601604FF4967141600A218160067328
:1031B00001460A48083000F013F807484FF4FA7146
:1031C00020300560C0E9011406730146BDE8704077
:1031D0000248103000F004B85C2D00201C280020AC
:1031E0000A7B1AB149680160002102E009680160A8
:1031F00001210171704710B504798B68026844B1F0
:1032000049688C1A9C4201D9D11807E0016000215D
:1032100008E00968541A9C4202D9D11A016002E000
:10322000016001210171006810BD00002DE9F0412D
:103230000746806A1446884688B3002528E000BF08
:10324000B86A05EB450100EB8106217830794A1C0C
:103250002270C01C08F8010020781623411C217040
:1032600008F8003021783088414400F079FB21785B
:103270000844C0B22070B28842B1B16879B140440C
:10328000FCF716F920783179084420706D1CEDB2F6
:1032900097F82C00A842D3D80020BDE8F081FFE7C2
:1032A0000720FAE730B59BB003208DF868001421A1
:1032B0006846FCF724F91AA802909DF80C00002437
:1032C00020F00F00401C20F0F00010308DF80C00B2
:1032D0009DF80D00012520F0FF008DF80D009DF8F0
:1032E0000E00009420F0FF008DF80E009DF80F00F6
:1032F0008DF8045020F00F00401C20F0F00010303A
:103300008DF80F009DF81000694620F0FF008DF841
:1033100010003248FDF7CCFA18B100221146FCF734
:1033200095FC142105A8FCF7EAF89DF82100059406
:1033300020F00F00401C20F0F00010308DF821002C
:103340009DF822008DF8185020F00F00401C20F04E
:10335000F00010308DF822009DF82300079420F033
:10336000FF008DF823009DF8240005A920F00F0030
:10337000401C20F0F00010308DF8240064208DF8FF
:10338000200016481838FDF7E9F818B10022114658
:10339000FCF75CFC40210AA8FCF7B1F810A10AA8D0
:1033A000FDF7F5FA9DF8640020F00F00401C20F0B6
:1033B000F00010308DF864009DF8650020F0FF00EB
:1033C0008DF865000AA8FDF77FF9002803D00022D8
:1033D0001146FCF73BFC1BB030BD00000C2D00205B
:1033E0004E6F7264696353656D69636F6E64756374
:1033F000746F720010B50020FDF784FC18B1002234
:103400001146FCF723FCFDF7C9FB18B10022114659
:10341000FCF71CFC3CDF002805D00022BDE8104072
:103420001146FCF713BC10BD0C49087040B10128CF
:103430000FD002280FD003280FD14869FEF7D8BD5E
:1034400000208861C86106484078002805D0FDF753
:10345000E5BE00F0DBB800F037B870470429002063
:103460006C30002010B508461146AFF3008010BD47
:1034700018B10349C860002070470E207047000053
:103480006429002070B509B18C0701D0072070BDF8
:10349000064C0125A16062800549636010DF0028A9
:1034A000F5D1257016202EDF70BD000064290020A4
:1034B0006534020018B103490861002070470E20EE
:1034C00070470000642900202DE9F041164C606827
:1034D00020F0010060601548017801EB810100EBEC
:1034E00081063569FFF772FCB5FBF0F76761FFF7FE
:1034F0006DFCF1886D1E2944B1FBF0F087426068D5
:1035000002D140F0020001E020F00200606020796A
:10351000E16800F00200084304D00020BDE8F0415B
:1035200000F0B8B80220F9E7042900206C30002030
:1035300001484069FEF75CBD0429002010B5FFF783
:1035400041FC441EFFF742FC4443FFF73FFC0549A2
:103550004A69521E5043CA682146BDE81040FEF732
:103560004ABD0000042900202DE9F04110480178EF
:1035700001EB810100EB81042569FFF727FCE1885D
:10358000228911442944B1FBF0F200FB1216FFF727
:1035900019FC471EFFF71AFC07FB0061E08822892F
:1035A0001044044A28441269BDE8F041FEF723BDE7
:1035B0006C3000200429002010B5FFF703FC441EE6
:1035C000FFF704FC4443FFF701FCB4FBF0F0BDE857
:1035D0001040FEF70DBD000070B5FFF7F7FB860841
:1035E000FFF7F4FB0749496900FB01F4FFF7EAFB29
:1035F000451EFFF7EBFB684332462146BDE87040AD
:10360000FEF7F9BC042900200020704770B514486B
:10361000017801EB810100EB8104241DFFF7D6FB4B
:103620006188104E884211D2FFF7D0FB61880D1AD5
:10363000FFF7CCFB8208A188E06808442169284490
:103640002944FEF7D8FCFFF7C1FB07E0A288E06839
:1036500010448A082169FEF7CEFC6088F06170BDD5
:103660006C3000200429002004480079000702D4AF
:10367000012000F00FB800F003B80000042900207A
:103680000348416821F008014160407800F002B829
:103690000429002002494870024951F820000047DF
:1036A00004290020783B020010B50446FFF7A2FC75
:1036B0002046BDE81040FCF711BE70B50C00054671
:1036C00004D1002211461046FCF7C0FA25B90022A9
:1036D00011461046FCF7BAFA207828702088000AB4
:1036E00068702068000CA8702068000EE8702079CF
:1036F0002871207A68712089000AA871A068000CDE
:10370000E87170BD03480079000701D4FDF776BD6C
:10371000FFF7B6BF04290020F0B5194C00EBC0013B
:10372000A36803EB810521694A1C0AD001EBC1069D
:1037300003EB86076A687E68B24204D8B21A7A60E0
:1037400029622061F0BD0C4602E00C46316AD21BB2
:103750004E1C0DD001EBC10703EB8706776897423B
:10376000F3D301EBC10603EB86067768BF1A7760D7
:103770006A60296204EBC40103EB81010862F0BDB9
:103780004029002070B51C4B1A699C6815461146EB
:1037900007E0814208D00A4601EBC20604EB86012D
:1037A000096A4E1CF5D170BD002EFCD08A420DD1A5
:1037B00005EBC50004EB8000006A1861401C05D1D0
:1037C0000E4D0120A86000255D61587101EBC1001C
:1037D00004EB800002EBC202416804EB8202006A43
:1037E0001062421CDFD000EBC00004EB8000426896
:1037F0001144416070BD00004029002000100140CC
:103800002DE9F0411E4C2569681C37D01D48002663
:1038100001686069081A20F07F4718E0A16805EB8D
:10382000C50001EB80025068B84212D8156AA3693E
:103830003F1A064443B1D2E90601984738B1002245
:103840001146FCF703FA02E0D2E906108847681C2B
:10385000E4D1A178E078814206D1401CC0B2E0708A
:10386000022801D10020E0700548E1781C3040F8C2
:103870002160BDE8F0411420FBF730BFBDE8F081C6
:10388000402900200415014008B500201C4B0522EA
:1038900009210090FCF740FA18B100221146FCF70C
:1038A000D5F9184A01211848FCF710FA18B100227E
:1038B0001146FCF7CBF91448144A0121001DFCF70E
:1038C00005FA18B100221146FCF7C0F90E48104A5B
:1038D00001210830FCF7FAF918B100221146FCF773
:1038E000B5F909480B4A01210C30FCF7EFF9002823
:1038F00005D00022BDE808401146FCF7A7B908BD75
:103900007C290020710002000C280020FD2202000A
:10391000B930020069310200064A0020C2F81C01D9
:103920000548038A8168C95C038A5B1C0382C2F86C
:103930001C15704700200040543000201FB50021A6
:103940008DF8080005488DF8001082680192817496
:10395000D0E90012684690471FBD00005430002097
:103960000870000A48700220704700000121814061
:10397000024842688A43426070470000EC280020F9
:1039800038B515494888A0F57F42FF3A23D04A78D8
:10399000124C521CD2B24A70237B93420AD3083194
:1039A00075DF002817D0A169002914D001B0BDE847
:1039B0003040084700254D70217C29B13B2176DF3E
:1039C00010B1A16901B188476169002903D08DF860
:1039D00000506846884738BD88280020902E002077
:1039E0000F480068C005C00D13D0103840B2002841
:1039F00006DA00F00F0000F1E02090F8140D03E06B
:103A000000F1E02090F800044009012803D00328C9
:103A100003D002207047002070470120704700004B
:103A200004ED00E042788378521C934200D10022DA
:103A30000378934201D1002070470A6041684078C2
:103A400000EB400001EBC0007047F8B51546069C3E
:103A50001E4607460222009400F00AF8002806D10C
:103A60003346102229463846009400F001F8F8BD8C
:103A70002DE9FC5F00260C9C994692468B468046B9
:103A80002778354632E000BFD8F80400002200EB6A
:103A9000850069460068019001A865DF00280DD106
:103AA0009DF80010514520D10EB1002200E0022205
:103AB0002078114401441F2902D90C20BDE8FC9F45
:103AC00036B9401CC0B2411C217009F800B0012673
:103AD000217801A801EB0902694665DF0028EDD1D4
:103AE00020789DF80010084420706D1CB8F8000084
:103AF000A842C9DC26B12078C01B401E09F8070087
:103B00000020DBE7017911B9007B002800D00120FB
:103B1000704700000D0000000E0000000F000000C4
:103B2000100000000D000300B10B02000E000300A6
:103B3000B10B02000F000300B10B020010000300E4
:103B4000B10B0200FFFFFFFF4529020065210200C3
:103B50007920020035220200412902002D210200B5
:103B600075200200312202003D2902007D20020062
:103B7000712002002D220200B9350200D935020061
:103B800031350200693502003D3502006936020018
:103B900035150200E11402000537020085220200FB
:103BA00003000000C43B0200002800207C0100004C
:103BB00060F50100E03B02007C290020CC270000DA
:103BC00024FA01004201032FFFFF0C320D180100FF
:103BD0000F1801000A180103FFFFFFA11490D00382
:040000050001F40101
:00000001FF
