:020000040007F3
:10B000008857002039B5070041B5070043B5070050
:10B0100045B5070047B5070049B507000000000027
:10B020000000000000000000000000004BB5070019
:10B0300000000000000000004DB507004FB50700FC
:10B0400051B5070051B50700BDB7070051B507005E
:10B0500051B5070051B5070051B5070051B50700BC
:10B0600051B5070051B5070051B5070051B50700AC
:10B0700051B5070051B5070051B5070051B507009C
:10B0800051B507002DB6070051B5070051B50700AF
:10B0900051B6070051B50700A5B6070051B5070026
:10B0A00051B5070051B5070051B5070051B507006C
:10B0B00051B5070051B50700000000000000000076
:10B0C00051B5070051B5070051B5070051B507004C
:10B0D00051B5070051B50700000000000000000056
:10B0E0000000000000000000000000000000000060
:10B0F0000000000000000000000000000000000050
:10B10000000000000000000000000000000000003F
:10B11000000000000000000000000000000000002F
:10B40000DFF80CD000F0CEF80048004721D107004B
:10B4100088570020401E00BF00BF00BF00BF00BF14
:10B4200000BF00BF00BF00BF00BF00BF00BF00BF24
:10B4300000BF00BF00BF00BF00BF00BF00BF00BF14
:10B4400000BF00BF00BF00BF00BF00BF00BF00BF04
:10B4500000BF00BF00BF00BF00BF00BF00BF00BFF4
:10B4600000BF00BF00BF00BF00BF00BF00BF00BFE4
:10B4700000BF00BF00BF00BF00BF00BF00BF00BFD4
:10B4800000BF00BF00BFC5D170470000401E00BF15
:10B4900000BF00BF00BF00BF00BF00BF00BF00BFB4
:10B4A00000BF00BF00BF00BF00BF00BF00BF00BFA4
:10B4B00000BF00BF00BF00BF00BF00BF00BF00BF94
:10B4C00000BF00BF00BF00BF00BF00BF00BF00BF84
:10B4D00000BF00BF00BF00BF00BF00BF00BF00BF74
:10B4E00000BF00BF00BF00BF00BF00BF00BF00BF64
:10B4F00000BF00BF00BF00BF00BF00BF00BFC5D17D
:10B5000070470000056885F308884068FF2464B22E
:10B51000EFF30585002D01D1A646004725460646D6
:10B5200021273FBAF0B40024002500260027F0B4FC
:10B53000F92040B20047000006488047064800470F
:10B54000FEE7FEE7FEE7FEE7FEE7FEE7FEE7FEE7D3
:10B55000FEE70000F9B6070001B4070040EA010366
:10B560009B0703D009E008C9121F08C0042AFAD2B9
:10B5700003E011F8013B00F8013B521EF9D270477D
:10B58000D2B201E000F8012B491EFBD27047002225
:10B59000F6E710B513460A4604461946FFF7F0FFD2
:10B5A000204610BD064C074D06E0E06840F0010360
:10B5B00094E8070098471034AC42F6D3FFF724FF15
:10B5C000A8E10700C8E1070000F01F020121914037
:10B5D0004009800000F1E020C0F88012704700F0C0
:10B5E0001F02012191404009800000F1E020C0F8D5
:10B5F0000011704700F01F020121914040098000B6
:10B6000000F1E020C0F8001270474907090E002839
:10B6100006DA00F00F0000F1E02080F8141D7047FA
:10B6200000F1E02080F80014704700000748002176
:10B63000C0F84011C0F84411C0F84811C0F84C11CE
:10B64000C0F80011C0F8041102F0DABB001001408C
:10B650002DE9F04186B04FF0FF30114D0290684661
:10B66000D5E9046801F014FA074601F085FC0446A8
:10B6700047B102AA4146009801F02AFA029801F067
:10B68000CDFC04E0029801F0C9FC00B914B13046C9
:10B6900000F010FE0020687106B0BDE8F0810000E7
:10B6A000282C0020084810B5406840B18047002889
:10B6B00009D00022BDE81040114600F05DB9BDE898
:10B6C000104001F017BC10BDE02C002006480268B5
:10B6D0000649102A01D1064A0A600068402801D1B3
:10B6E000044808607047000058050040F42C002012
:10B6F0000024F4000090D0032B4810B400780123FC
:10B70000062816D12848001D0078000711D12648C8
:10B7100008300078C0F3031003280AD122480C3007
:10B72000007810F0F00F04D12048016821F08071FA
:10B7300001601E487438016841F470010160BFF374
:10B740004F8FBFF36F8F4FF01021D1F80002002808
:10B7500003DBD1F80002002823DA154A13601548EC
:10B760000368002BFCD01523C1F800320468002CBC
:10B77000FCD0C1F8043201680029FCD0002111601E
:10B7800001680029FCD0BFF34F8F0848F0380168EA
:10B79000094A01F4E06111430160BFF34F8F00BF1C
:10B7A000FDE710BCFFF792BFE00F00F0FCED00E0FA
:10B7B00004E5014000E401400400FA052DE9FF47DB
:10B7C000584C0026584DE07D4FF0020900284FF4F8
:10B7D00092714FF4A27A284649D001F01CFFA0B123
:10B7E000C5F824618DF80090D5F88004C5F8800470
:10B7F0000390D5F83C058DF80800E0680190E674E8
:10B80000D4E90012684690470FE04FF4887128464B
:10B8100001F001FF48B1C5F81061D5F83C05E17CA5
:10B82000C0B2814201D102F0B9F85146284601F078
:10B83000F2FE40B1C5F84461E07C20B1D5F83C058A
:10B84000C0B202F0ABF84FF49071284601F0E3FE6D
:10B85000002865D0C5F82061A07C002860D0D5F80C
:10B860004C0504B0C0B2BDE8F04702F059BB01F08E
:10B87000CDFE4FF401780127C0B1C5F82461C5F8A9
:10B880000883607D00B96F608DF80090D5F8800462
:10B89000C5F880040390E07C8DF80800E068019012
:10B8A000E674D4E900126846904713E04FF48471BF
:10B8B000284601F0ABFE68B102F05EF8E07C217D25
:10B8C000884207D1607D00B96F60C5F80883207D8C
:10B8D00002F064F84FF48E71284601F097FE58B1DB
:10B8E000A07C218A884202D902F008FB04E0C5F856
:10B8F0001C6108B102F014FB5146284601F086FE97
:10B9000000280DD0C5F84461607D00B12F60E07C57
:10B91000002805D0207D04B0BDE8F04702F03EB815
:10B92000BDE8FF87D03000200020004002E008C8BA
:10B93000121F08C1002AFAD170477047002001E0A9
:10B9400001C1121F002AFBD17047000010B5094841
:10B95000084C007DE41CC000207000206070A070C6
:10B96000204601F0BEFAE0702046BDE810400421F8
:10B9700001F00CBAAC2C0020BFF34F8F05480168D2
:10B98000054A01F4E06111430160BFF34F8F00BF2E
:10B99000FDE700000CED00E00400FA0538B50C46A8
:10B9A000064BE268097853F822506268009202461A
:10B9B00004F10C006369A84738BD0000102C00207A
:10B9C00070B50F4B054605201C785E78A64216D050
:10B9D0001C7818789E88B04201DA401C00E00020F4
:10B9E00018705E88D86804FB06002860986800EB31
:10B9F000C4039B880B8050F834001060002070BD99
:10BA0000182C00202DE9F84F394C82469346608867
:10BA10000F46814269D837484FF000098DF80090F1
:10BA20004FF6FF780068454610EAE81012D010384B
:10BA300040B2002806DA00F00F0000F1E02090F894
:10BA4000140D03E000F1E02090F800044609012EF7
:10BA500001D109E00426684636DF02280BD018B170
:10BA600000221146FFF788FF21786078A288904273
:10BA700003DA401C02E072B6F6E70020C0B288424A
:10BA800007D065786078904201DA401C00E0002021
:10BA90006070012E0AD062B69DF8000037DF0228E0
:10BAA00004D018B100221146FFF766FF45451AD0B1
:10BAB000A068BAF1000F40F835B00DD067B16188C9
:10BAC000E0683A4605FB01005146FFF747FDA068D4
:10BAD00000EBC500878003E000EBC500A0F80490F0
:10BAE0000020BDE8F88F0420FBE70920F9E70000FB
:10BAF000182C002004ED00E00EB504E0029ABDF819
:10BB000004100098904702AA01A96846FFF758FF61
:10BB10000028F3D00EBD000030B5CB0008339DB235
:10BB200093074FF0000401D0072030BD044B9A600A
:10BB30002A44DA605C701C7058809980002030BD07
:10BB4000182C002070B5114DAC6824B12AB120B179
:10BB500000232D780AE0082070BD072070BD00BFCB
:10BB600003EBC30614F8266026B15B1CAB42F7DB7F
:10BB7000042070BD03EBC305012604F8256004EB27
:10BB800085046170A2610360002070BD282C002034
:10BB900010B50446082904D0002211461046FFF7CC
:10BBA000EBFED4E90010BDE8104008471CB5044A7C
:10BBB000CDE9000108216846FFF724FF1CBD000005
:10BBC00091BB07002DE9F0478146089C1D461746AA
:10BBD000884698074FF000060AD14DB101F0AEFE3D
:10BBE0002046244CA06184F800800020A5600BE072
:10BBF0000720BDE8F08700BF00EBC001401C05F83E
:10BC0000216005EB81010E754045F5DB08EBC800AE
:10BC100005EB80010320607001F11800002207EBA2
:10BC20004705E16001EBC203521C1E705E709F70FD
:10BC3000586000EBC500032AF4DB4FF0FF302061B1
:10BC4000A670E6701420FFF7BFFC03211420FFF755
:10BC5000DCFC1420FFF7C3FC0749C1F80090032166
:10BC60001120FFF7D2FC0448001F0068606100202B
:10BC7000BFE70000282C0020081501402DE9F843FB
:10BC800004461F480D461746816869B10278944200
:10BC900001D2052D02D20720BDE8F88304EBC402CF
:10BCA00011F82230012B01D00820F5E7814601EB85
:10BCB0008200407801281FD05FF0000602F0D0F922
:10BCC000D9F80C10804601EBC800694602F0EAF989
:10BCD000A0B1012100F8041B0A4910C0096880E8DE
:10BCE000E200D9F80C10009801EBC801487014204C
:10BCF000FFF780FC0020CFE72E46DFE70420CBE7EC
:10BD0000282C002004150140F8B5154C0546A06804
:10BD100050B121788D4201D30720F8BD05EBC50154
:10BD200010F82100012801D00820F8BD02F098F990
:10BD30000646E068694600EBC60002F0B3F960B160
:10BD4000022101704560E06800EBC6010098487070
:10BD50001420FFF74FFC0020F8BD0420F8BD0000C0
:10BD6000282C002010B501F0F3FB002010BD0000CE
:10BD700070B588B0154604461E462022184968460C
:10BD8000FFF7ECFBA0680690207900B101208DF848
:10BD900014008DF81C60607900B10E208DF815003C
:10BDA000E0780290A078039020780190607800906D
:10BDB0000C48002145608170207902280ED00A4984
:10BDC000684601F07BFA002806D101F041FB0548E6
:10BDD0000121401C01F0AAFA08B070BD0620FBE763
:10BDE00004E10700002C00200DE00700064910B513
:10BDF00008700121044801F037FB112801D0002010
:10BE000010BD042010BD0000002C00202DE9F041E1
:10BE10000446006801F0F0FB2078174F012606FA6F
:10BE200000F038600021606801F0DDFB1348144D1C
:10BE3000C07DA069C5F82405607D217D0843C5F853
:10BE40006C05D4E90001C5F80C05C5F81415207D72
:10BE500001280FD1E06801F0CFFB207B86403E60D7
:10BE60000021A06801F0BFFBD4E90201C5F8081564
:10BE7000C5F81005BDE8F08108050050D03000205D
:10BE80000020004010B51C4C86B01ECC8DE81E0072
:10BE900030B1684618DF18B100221146FFF76CFD7B
:10BEA0004FF4F62013DF18B100221146FFF764FDAE
:10BEB000124B48221249082001F00AFF18B1002253
:10BEC0001146FFF759FD00200490059001208DF8E0
:10BED000100004A860DF18B100221146FFF74CFDE6
:10BEE000084801F00DFF002803D000221146FFF79B
:10BEF00043FD06B010BD0000F4E00700C1DC070000
:10BF0000382F002015DD070038B50068401C18D018
:10BF10000024684600F058F90098017801290FD1F3
:10BF2000418851B181684FF4A0400022806800F040
:10BF300015FA00994988814201D1012400E00024CA
:10BF4000204638BD70B511DF18B100221146FFF749
:10BF500013FD4FF0E0210020D1F800315FF0010423
:10BF600004FA00F21A420AD042B202F01F0504FAA3
:10BF700005F15209920002F1E022C2F88011401C42
:10BF80002028EDD34FF4A044A06813DF18B100229D
:10BF90001146FFF7F1FCA068BDE8704000F012B94F
:10BFA00008B5684600F010F900980178A52904D07A
:10BFB0000079AA2801D0002008BD012008BD10B5D5
:10BFC00000F05FFC18B900F078FA002819D064205E
:10BFD00001F04AF900F018FC18B100221146FFF7F1
:10BFE000CBFC00F04EFC18B100221146FFF7C4FC58
:10BFF00000F048FA040003D000221146FFF7BCFC11
:10C00000204610BD00B587B01422084901A8FFF7EB
:10C01000A5FA05980DF1040C00909CE80F0000F0C3
:10C0200013F802F053F807B0002000BD50E10700FC
:10C0300010B500F0FDFA002805D100F003FD04461C
:10C0400002F044F8204610BD2DE9F84304460E46A0
:10C0500017461D466846DDF8208000F0B5F814F05C
:10C06000FF024FEA1441304C30484FF001034FF0CB
:10C07000FF0C10D0012A14D0032A23D00021022A59
:10C080002DD0052A3FD0042A46D0062A01D104200B
:10C090002070BDE8F88341808560037080F804C09B
:10C0A0000BE04180F11929448160A521017080F8DD
:10C0B00004C0C0F81880C6600EE023701B4800F072
:10C0C00065F8E6E700990A7802704A884280896834
:10C0D0008160AA210171C660C0E90475EDE7009A8C
:10C0E0001578A52D0AD00570558845809268826024
:10C0F00080F804C0C16001614161DEE74180816078
:10C1000080F800C0F4E700F091FC18B1002211465D
:10C11000FFF732FC0320BBE74180816080F800C05C
:10C12000009909790171C9E74C2C0020DC3100200D
:10C130000EB5084A07CA8DE8070001F01FFB00286A
:10C1400006D105494FF4FE204860684601F036FBF1
:10C150000EBD000044E10700502C002038B5044615
:10C16000684600F031F800980178217041886180BC
:10C170008168A16001792171C168E1600169216173
:10C18000416961618069A06138BD000010B5044655
:10C190001C210B4801F0E8FA18B100221146FFF704
:10C1A000EBFB00231C222146054801F019FB002867
:10C1B00005D00022BDE810401146FFF7DDBB10BDE1
:10C1C000502C0020FFF79EB9014901607047000024
:10C1D00000F0070070B5174C0F20217801EB4101EA
:10C1E00004EBC1021449536912F8045F4968012D38
:10C1F0000ED0032D0BD14FF08050006980B2B3FBFD
:10C20000F0F0084428DF002801D10121A17070BDA1
:10C210000803516856690D1A311892681844104481
:10C22000B5F5805F02D2AA0829DFECE74FF48062FF
:10C2300029DFE8E7E8300020082C002000EB40026E
:10C240000548002100EBC200022201718160C0E9B3
:10C2500004218161C1607047E83000202DE9F04180
:10C26000134C069E65780A2D1FD027783D44EDB209
:10C270000A2D01D30A3DEDB205EB450504EBC505DA
:10C280002871AA61D1E90001C5E90401C5E90236B6
:10C29000A178002021B9FFF79DFF112800D10020CF
:10C2A0006178491C6170BDE8F0810420FBE7000063
:10C2B000E83000202DE9F05F254801694A1C41D093
:10C2C000826801EBC101DFF88CB002EB810181468D
:10C2D0004E68DBF8004047690079E11B21F07F459B
:10C2E000ED1CB0B9DFF870804FF48030C8F844031B
:10C2F000C8F804031120FFF767F91120FFF76FF961
:10C300004FF0010AC8F800A02F20FFF7BFF889F806
:10C3100004A0B54200D235460E49E8193C3120F060
:10C320007F400860DBF80010001B091B21F07F41F3
:10C3300020F07F40C91C814208D9BDE8F05F112080
:10C34000FFF758B9BDE8F05F01F0F8BABDE8F09F1B
:10C35000282C0020041501400010014010B50446AF
:10C3600012B11088002211E04FF6FF70FAE7030ABD
:10C3700043EA0023A05C5840C0F30313584080EA0E
:10C38000003080B2C3B280EA4310521C8A42EED31E
:10C3900010BD000010B5042818D20D4900EB400272
:10C3A00001EB820351F822209C686AB111F8302F0A
:10C3B000521E0A7000F00EF8201F00F06DFD18B13B
:10C3C00000221146FFF7D8FA002010BD072010BD4B
:10C3D0006032002000EB40020448002140F82210A7
:10C3E00000EB8200816041607047000060320020F5
:10C3F00010B586B0142101A8FFF7C9F80A48002437
:10C400008DF804408088ADF8060008480DF1040C52
:10C41000C0680490059800909CE80F00FFF714FE98
:10C4200006B0204610BD00005C2C00200432002025
:10C43000032161F3070008B50549064B898861F3BC
:10C440001F400ECB0094FFF7FFFD002008BD000049
:10C450005C2C002008320020012138B561F3070070
:10C460000649074B898861F31F404FF4A0418C684F
:10C470000ECB0094FFF7E8FD002038BD5C2C0020B7
:10C480000832002000B58BB004A8FFF767FE0898BB
:10C4900000280CD0079860B107990A980844002139
:10C4A000CDE90010089880080290684618DF0BB0AC
:10C4B00000BD4FF4A0408068F1E700B58BB004A840
:10C4C000FFF74CFE089800280FD0079878B107991D
:10C4D0000A980844032100914FF4F621CDE9011098
:10C4E000089880080390684618DF0BB000BD4FF431
:10C4F000A0408068EEE7080003D000221146FFF755
:10C500003BBA704700B587B01422074901A8FFF76E
:10C5100025F805980DF1040C00909CE80F00FFF73A
:10C5200093FD07B000BD000064E107001FB50323C1
:10C530000093CDE9010190080390684618DF04B02C
:10C5400010BD1FB501230093CDE9010190080390B0
:10C55000684618DF04B010BD70B5050004D0287A15
:10C56000800703D0102070BD0E2070BD144C607881
:10C57000032803D0042801D0052801D0082070BD6D
:10C580006868E1688600A0683044884204D94FF0AA
:10C59000FF30A0600C2070BD00F02AFA0028FAD10C
:10C5A000A9683246A368606901F01AF90028F2D13F
:10C5B000A1683144A160E2689142ECD0092070BDCD
:10C5C0005C2C0020094810B54178072901D00820CB
:10C5D00010BD0069FFF798FB18B100221146FFF764
:10C5E000CBF903488068BDE8104000475C2C002070
:10C5F0005432002010B50D4C6078052813D1D4E9D1
:10C60000020188420FD10620607000F0F1F9002885
:10C6100008D16069E168406800F088F8002801D11D
:10C620000721617010BD082010BD00005C2C0020A7
:10C630003EB5184A184D002407CA8DE80700AC70B3
:10C64000AC8005F11C01684601F0B8F808B16C70C7
:10C650003EBD11494FF4A0401C31806848600E482F
:10C660000E4A00211030FFF76DFA18B10022114672
:10C67000FFF782F900224FF470112869FFF7FEFAE4
:10C6800018B100221146FFF777F90120AC606870FD
:10C6900000203EBD78E107005C2C0020D5C90700D2
:10C6A00010B5094C0820A16801B110BD61780429BA
:10C6B000FBD1A178054800F047F810B10021A17026
:10C6C00010BD0521617010BD5C2C002014320020CB
:10C6D0002DE9F041134C07466078032805D0042863
:10C6E00005D008252846BDE8F08104206070A068C8
:10C6F00008B10820F7E700F07BF90500F3D178686E
:10C700008600A0788119402901D90920EBE7064A63
:10C71000B96810443246FEF721FFA0783044A0707B
:10C72000E0E700005C2C00201432002010B500224D
:10C73000FFF714FE03490988884201D00B2010BD81
:10C74000002010BDF831002070B500250C290ED353
:10C7500043180189044600EB4101581A0A38C2B255
:10C760001948022A027002D30A318B4201D20920F1
:10C7700070BD1648FEF7F2FE4FF010214FF6FF7025
:10C78000B1F88020824202D02388934219D1B1F8B7
:10C790008210814202D06088884212D120894FF6EF
:10C7A000FE724FF4A043A8420BD904EB450149891E
:10C7B000914204D09E896D1CB6B2B142F3D10020E3
:10C7C00070BD0B2070BD0000582C0020F8310020F7
:10C7D000094910B5A1F11C00416102214170C168F5
:10C7E0001C3000F0C1FF002805D00022BDE8104039
:10C7F0001146FFF7C1B810BD782C002001498861AF
:10C80000704700005C2C00202DE9F04188B068469C
:10C81000FFF7A4FC039800282BD0069A00F540509F
:10C820004FF44051904227D9A2F540504408104699
:10C83000039A00EB440687184FF4A0400D46806829
:10C8400001EB440890420ED204F540500422014608
:10C85000FFF777FE00280CD1294604220846FFF78F
:10C8600070FE002805D1BA1B23464146304600F031
:10C8700038F808B0BDE8F081039A0698FFF761FE2A
:10C88000F7E730B58FB002A8FFF768FC05980028DD
:10C8900017D0089A00F540504FF44051904216D9F5
:10C8A000A2F54050430810464FF4A044059AA468EE
:10C8B000059D024400EB430001EB4301AC4202D270
:10C8C0000E200FB030BD121A00F00BF8F9E70BABD9
:10C8D000032083E80700059880080E900BA818DF56
:10C8E000EFE72DE9F0411C4617460D460646FFF7D7
:10C8F0001DFE002818D0B5F5405F07D92346291B37
:10C90000301B1A46FFF7EDFF00280DD13A462946A5
:10C910003046FFF716FE002806D13A462946304633
:10C92000BDE8F041FFF702BEBDE8F08170B5426896
:10C930002148D2E90043D2E90212C0E90212C0E95B
:10C9400000430078440701D5840705D19C0703D133
:10C950008C0701D1940701D0062070BD174D0B4400
:10C960001A44EA60B1F5804F06D84FF4A0418968B7
:10C97000C1F5F621914201D20C2070BD0E4C104938
:10C98000503421600F496160C10701D00E4804E0B6
:10C99000800701D50D4800E00D48A06068780128A7
:10C9A00002D00826304670BD00F022F80600FAD109
:10C9B0002168E8688847F5E7043200205C2C0020F5
:10C9C000D1C7070005C5070059C4070031C40700D7
:10C9D000F1C3070068B5054E01253570052565F3DF
:10C9E00007000094FFF730FB68BD00005C2C0020BE
:10C9F00010B50D4C207808B1082010BD2069FFF754
:10CA000083F918B100221146FEF7B6FF00224FF459
:10CA100070112069FFF732F9040003D0002211469B
:10CA2000FEF7AAFF204610BD5C2C002010B50024A4
:10CA3000E0B2FFF7AFFC641C042CF9D3BDE8104052
:10CA400000F0C2B90F4910B5002081F8300004464B
:10CA5000E0B2FFF7BFFC641C042CF9D30A48FFF7CF
:10CA6000CDFE00F0E9F918B100221146FEF784FF6F
:10CA7000064800F0CBF918B100221146FEF77CFF02
:10CA8000002010BD60320020F7C40700ADD80700B9
:10CA90000E4910B58A78CC780023A24212D0521CDD
:10CAA000D2B28A70022A00D18B70084A8B781C326D
:10CAB00052F8232002604869104420F07F4048610A
:10CAC000012010BD0360002010BD0000282C0020B4
:10CAD0002DE9F043154E89460024B768336920E0FC
:10CAE00003EBC30107EB81014D68854202D9281A87
:10CAF000486018E0401B2C4400254D600D751D4614
:10CB0000D1F810C00B6ABCF1000F0AD009EB040881
:10CB100028F07F48C1E9028CD2F800C0C1F820C0DB
:10CB20001560591CDCD13361BDE8F083282C00204E
:10CB3000C02808D00649DB2807D0CB694A6A985438
:10CB4000521C4A62704700F02DB802484860704796
:10CB5000842C002059CB070010B50B4CC02808D0FE
:10CB600021464A6ACB69511CDC2805D0DD2806D154
:10CB700004E000F017F804E0C02000E0DB20985447
:10CB800061620248606010BD842C002031CB070038
:10CB9000C02802D1024901484860704731CB0700E4
:10CBA000842C0020084B30B45A6A002A09D0DC6873
:10CBB000002C06D00020D9695862D861A44630BC48
:10CBC000604730BC70470000842C00200020704774
:10CBD00007480021074A017002F5976002600222AF
:10CBE000C0E90121C160016141618161084670476E
:10CBF000802C0020B4320020F0B5184C8446A16887
:10CC000051B365691020691A01F0010326681A46BC
:10CC10000121972713FB07F706EB8707674506D126
:10CC2000A56901FA03F675400020A56103E021EA39
:10CC300003039D42EDD1A56921EA030301FA02F63F
:10CC400035420AD1A268002A07D0521EA26062684B
:10CC5000521C62601A46F1E70420F0BD6C370020D8
:10CC6000074A0121138A12689943972311FB03F1A4
:10CC70004FF4167303EB8101505000207047000001
:10CC80006C37002070B5D8B1D1B10F4AD368CBB1A1
:10CC90005B1ED360936897265B1C9360536914688E
:10CCA0001D46734304EB830606604FF4167000EBD9
:10CCB0008300205808600120A8435061002070BD07
:10CCC0000E2070BD042070BD6C37002010B5E9B196
:10CCD00000220A60104A5368E3B1B0F5167F17D8F6
:10CCE0005B1E5360D0689723401CD06010691468A5
:10CCF000434304EB83030B60012101FA00F49369C1
:10CD00008143234393610020116110BD0E2010BDAB
:10CD10000C2010BD042010BD6C37002002490020FB
:10CD20000870FFF71FB80000842C00200149C8607C
:10CD300000207047842C00203EB50A4C207808B1B2
:10CD400000203EBD084A032307CA8DE80700074AB2
:10CD500000216846FFF70CF80028F2D1012121706C
:10CD60003EBD0000842C00209CE107004DDC070044
:10CD7000044AC2E9070100205062034850600020C5
:10CD800070470000842C002091CB070010B538B10B
:10CD90000B4A1378012B05D0022B0FD0082010BDB1
:10CDA000102010BD00239361C2E90401022010701D
:10CDB0000448906001F068F8002010BD042010BD08
:10CDC000842C002051DB070010B50F4C0020A06020
:10CDD000E060FFF7FBFE18B100221146FEF7CCFD24
:10CDE000FFF79CFF18B100221146FEF7C5FD606AEF
:10CDF000FEF78AFF042804D1002211461046FEF7F0
:10CE0000BBFD002010BD0000AC2C002010B5044676
:10CE10000748C4600748FFF789FF18B10022114690
:10CE2000FEF7AAFD0CB1002010BD0E2010BD0000C1
:10CE3000AC2C002091DB070070B5154C0020154A82
:10CE4000E0612062A0626070207001206061A061DA
:10CE5000A070014604F12400FEF774FE78B9FFF7D4
:10CE6000B7FE00280CD1FFF767FF002808D14FF468
:10CE7000167504F110012846FFF728FF08B10320BA
:10CE800070BD29462069BDE87040FFF771BF000002
:10CE9000AC2C0020DDCE0700001FFFF7ADBE000068
:10CEA00038B50D46040014D09DB10B490020009008
:10CEB0004A7862B1487069462046FFF7E3FE009A5F
:10CEC000921F00922A802168091D216038BD04202C
:10CED00038BD0E2038BD0000AC2C0020022001F02F
:10CEE00031B801784278807811440844C043401C2E
:10CEF000C0B27047F8B51C4C2078002832D02069A9
:10CF000028B10026E06820B1002526B112E00126F4
:10CF1000F8E70125F9E7684651DF052805D030B16B
:10CF200000221146FEF728FD04E0012602E02169F7
:10CF30000098884795B96088ADF800006946A068F8
:10CF400061DF052805D030B100221146FEF714FD3F
:10CF500004E0012502E0D4E902018847002EDAD07E
:10CF6000002DD2D0F8BD0000E02C0020800701D0B9
:10CF700000207047012070472DE9F04726484FF008
:10CF8000000980464578D0F810A038E0D8F80C00A9
:10CF900000EBC50634782FE004EB44017068641C94
:10CFA00000EBC100B178E4B2A14200D100240178C5
:10CFB000022902D003291FD115E04068D8F80810D3
:10CFC00000EBC00201EB8207397DA9B100F0DAFE67
:10CFD00087F8149010E000BF00EBC00002EB800067
:10CFE0000375006A04E0D8F80820D8F810004B4612
:10CFF000471CF1D1C8F810007078A042CCD16D1E4A
:10D00000EDB2C3D2D8F81010514502D00120BDE8CE
:10D01000F0870020FBE70000282C00202DE9F047D6
:10D0200004463D48002781464678D0F810A067E0C6
:10D03000D9F80C1001EBC6055CE0601C08D0224654
:10D04000D9F8080004EBC20100EB8100046A2FE06C
:10D050002878696800EB4002401CC0B201EBC201B5
:10D060002870AA78904200D12F704A68D9F808C079
:10D0700002EBC2000CEB800091F800C0BCF1010F84
:10D080003AD190F814C0BCF1000F35D1D1F808C0E6
:10D09000C0F808C0D1F80CC0C0F80CC0D1F810C05E
:10D0A000C0F810C04969C16199F8051001B18760E5
:10D0B0008368D9F814C0DFF86480A3EB0C0121F079
:10D0C0007F41414502D2C368194407E0ACEB03013C
:10D0D000C36821F07F418B4202D9591A416000E0B8
:10D0E000476087600121C7600175891E0162104693
:10D0F00000F012FE601CA0D12878697888429CD18B
:10D10000761EF6B294D2D9F81010514502D0012003
:10D11000BDE8F0870020FBE7282C0020FFFF7F0000
:10D120001CB54B4801680026B12955D000250122C5
:10D130001420009600231146019600F029FA454F6D
:10D140004FF480143C604FF010204069B0F5F62F8A
:10D1500004D0002211461046FEF70EFC4FF080501E
:10D160000069B0F5805F04D0002211461046FEF73A
:10D1700003FC39480090394B052203210020FEF7BB
:10D1800021FD18B100221146FEF7F6FB0323CDE97D
:10D19000006300221020114600F0FAF9FEF7C8FFE4
:10D1A000FEF7FEFE2B4E361DC8B13460FEF707FFBA
:10D1B00018B100221146FEF7DFFB85F00100FEF7F3
:10D1C00061FE00F087FCFEF71DFF18B1002211463A
:10D1D000FEF7D2FB3C6008E001250660A7E785F07A
:10D1E0000100FEF74FFE00F075FC1A480830006899
:10D1F000000C10F0010F05D0002028434FF4A0458B
:10D2000006D101E00120F8E7A868FEF77DFE40B9ED
:10D210003460FEF70DFF18B100221146FEF7ACFB9B
:10D220003C60A868FEF770FE28B1FEF7B9FE10B9A1
:10D23000A868FEF787FEBFF34F8F09480168094AC7
:10D2400001F4E06111430160BFF34F8F00BFFDE7C0
:10D250001C05004008050050ADBB0700F82C00205D
:10D260000CED00E00400FA0531B540F2E73404E0CB
:10D27000401E00902046FEF7CDF800980028F7D118
:10D2800038BD4907090E002806DA00F00F0202F146
:10D29000E02282F8141D03E000F1E02282F800147D
:10D2A00000F01F02012191404009800000F1E020C0
:10D2B000C0F88012C0F80011704700002DE9F0415D
:10D2C000154C05460F46A07D10B10820BDE8F08141
:10D2D00005B9124D687FE0752846FEF797FD676037
:10D2E00028690F4E206057B1297FE07D08B10D48B5
:10D2F00000E00D48C6F804030220FFF7C2FFE07DFE
:10D3000008B1082000E00420C6F800050120A0753F
:10D3100000206075DAE70000D030002024E107002B
:10D320000020004010030200800002002DE9F05FA1
:10D33000454DEA7C12B11120BDE8F09FE97400264A
:10D34000E8602E75EA7D414C4FF001084FF4A2775A
:10D350004FF4927A9AB36214B2EB104F01D01020BE
:10D36000EAE74FF48873B146C4F81061C4F8446129
:10D37000C4F83405C4F83815C4F80080686848BBA0
:10D380009B46B8465946204600F045F906464146B8
:10D39000204600F040F907465146204600F03BF990
:10D3A00001463E430E43EDD0C4F81091C4F84491B9
:10D3B000C4F8249185F81390B9BBC7BB0AE0FFE716
:10D3C000687D08B900F0FCFA686828B14FF4017074
:10D3D000C4F804030020AFE7D346AA4659462046C6
:10D3E00000F014F905464FF48471204600F00EF960
:10D3F00081464FF4A271204600F008F9074649EA39
:10D4000007002843EAD055EA070007D100F0B4FA34
:10D410009AF813109AF814008142DFD8C4F84461D6
:10D42000C4F824618AF8136015B1032084E700E092
:10D430000FB10F2080E79AF815000028404601D070
:10D440002060C7E76060C5E7D030002000200040C2
:10D4500010B5044C607D002803D100F0B1FA012022
:10D46000607510BDD03000202DE9F05F364C0027EC
:10D47000A27C12B11120BDE8F09FA1740026A0602B
:10D480002682E37D314D01225BB35303B3EB104F92
:10D4900001D01020EFE74FF49073C5F820614FF4EE
:10D4A000AC7CC5F85861C5F84405C5F84815AA60B4
:10D4B0006068A04608BB9A46E1465146284600F0FF
:10D4C000AAF804464946284600F0A5F80443F4D0DB
:10D4D000C5F82061C5F8586100B10F2788F81260BF
:10D4E00030E04FF48E7AC5F81C619046AA6000F0D7
:10D4F00005FD61684FF4807079B123E05D465146C7
:10D50000484600F083F810B9208AA842F7D1208A53
:10D51000A84204D000F0F2FC01E08346A946A07CBA
:10D52000218A8842EAD8208A584501D10F2708E08D
:10D530004D465146284600F069F80028F9D0C5F854
:10D540000C80A674384696E7D030002000200040BA
:10D5500070B50C4C0C480025E17DC0F800556268A0
:10D560005AB109B1094901E008498C39C0F80813DA
:10D570004FF0E0210420C1F8800100F051F8A575BA
:10D58000656070BDD0300020002000401003020014
:10D5900030B541EA4201DDE9034541EA83018000FB
:10D5A00041EA042100F1A04041EA0541C0F800171A
:10D5B00030BD30B541EA4201DDE9034541EA83016E
:10D5C000800041EA042100F1A04041EA0541C0F891
:10D5D000001730BD1CB5002100910B4601220191BE
:10D5E000FFF7E7FF1CBD1CB500220B460092114659
:10D5F0000192FFF7DEFF1CBD1CB5002100910B4618
:10D60000012201911146FFF7D4FF1CBD40580028AC
:10D6100000D0012070474058002800D001207047FA
:10D6200070B513484FF0FF31D0F80C25D0F81465D1
:10D63000D0F80855D0F81045C0F80C15C0F81415EE
:10D64000C0F80815C0F810151046FFF7C3FF3046A4
:10D65000FFF7C0FF601C02D02046FFF7BBFF681C2D
:10D6600004D02846BDE87040FFF7B4BF70BD00008D
:10D670000020004070B51C4D2BE0002404EB44005A
:10D6800005EB8000016809B301290ED0032907D0FA
:10D69000042902D0052911D120E0FEF75DFF0DE03D
:10D6A00081684160FFF742F903E0FFF711F8FEF7E8
:10D6B000F7FF18B100221146FEF75EF9E0B2FEF75F
:10D6C00069FE18B100221146FEF756F9641C042CBD
:10D6D000D4D395F830000028CFD170BDFEF78AFF73
:10D6E000BDE87040FEF76EBF603200200748037847
:10D6F000012B03D1012901D102210170100003D0B7
:10D7000000221146FEF738B9704700004C2C00206B
:10D7100070B5134C1E4615466078012902D00329C6
:10D7200014D107E0052811D1A3697BB132462946FF
:10D7300004200AE0022809D10A48406880470320F3
:10D740006070A36913B1324629469847280005D076
:10D75000BDE8704000221146FEF70EB970BD000012
:10D760005C2C00205432002008B50B4600220146F4
:10D7700003200092FEF772FD08BD000070B50D4E4B
:10D7800000240D4874602546047044708470284657
:10D79000FEF754FD6D1C0A2DF9D3064934600020B4
:10D7A0000831746041F82040401C0228FAD3002060
:10D7B00070BD0000082C0020E8300020074B1A68DC
:10D7C000022A09D00A6003F10801006841F822002A
:10D7D000521C00201A60704704207047082C00205B
:10D7E000F8B507461D4616460C460846FFF7BEFB31
:10D7F00058B16019FFF7BAFB38B1334622463946B3
:10D8000001200095FEF72AFDF8BD1020F8BD0000AC
:10D8100070B5244C06460022A078012841D100238F
:10D820002146A3700D78022E05EB450001EBC001E7
:10D8300003D0032E35D10D202EE01B484668761C00
:10D8400046608968B1EB063F15D843606078401E9A
:10D850006070681CC0B220700A2801D30A3820709A
:10D8600005EB450004EBC0011046091DFEF796F8D4
:10D870002846FEF7E3FC6078002812D0A078002844
:10D880000FD1FEF7A7FC00280BD0112809D0217872
:10D8900001EB410104EBC101BDE87040091DFEF739
:10D8A0007DB870BDE8300020082C00203EB501A9ED
:10D8B0006846FFF7F5FA88B9009802AB02786AB1BA
:10D8C0001C4991F83000032808D0002000EB4004E8
:10D8D00051F8244064B1401C0428F7D30098FFF7A6
:10D8E000DBFA002803D000221146FEF745F83EBDC2
:10D8F000187000EB400041F8202091F83000401CE7
:10D9000081F83000BDF804004FF0FF3202EB9002C6
:10D910009DF8080000EB400001EB80004260009998
:10D92000054A091D816000210846FEF76BF80028B2
:10D93000D4D13EBD6032002075D6070070B50126F7
:10D9400070044FF0E0210025C1F88001084C401020
:10D95000C4F84803C4F8080366602F20FDF796FD5D
:10D96000A660044C2F206561FDF790FD257170BD08
:10D9700000100140282C002006480021C0F80811A2
:10D98000D0F818150448037DC268D154017D491CA4
:10D990000175704700200040D03000201FB50121E4
:10D9A0008DF8080005488DF80010C168019100212C
:10D9B000C174D0E90012684690471FBDD0300020E6
:10D9C00004480021C0F82411C0F8081101210160A9
:10D9D00070470000002000402DE9F0473C4C054610
:10D9E00089460F464FF000084FF41676042960D997
:10D9F000287841065DD501065BD5697801F00F02F4
:10DA00000E2A56D10144AA78E8781044084410F050
:10DA1000FF0F4ED10022B91E2846FEF79FFCE919E0
:10DA200031F8021C884244D12878012700F0070110
:10DA30006069C2B28A422FD1401C00F007006061C9
:10DA4000FDF784FF67704846FFF70AF918B1002216
:10DA50001146FDF791FF1E4930461031FFF736F9A8
:10DA600050B1042804D0002211461046FDF784FF6F
:10DA7000174805212C3001E031462069FFF778F97D
:10DA800018B100221146FDF777FFE16800291CD08C
:10DA90004046BDE8F047084731462069FFF768F97E
:10DAA00018B100221146FDF767FFBDE8F047FDF70A
:10DAB0004DBF31462069FFF75BF9002805D0BDE86E
:10DAC000F04700221146FDF757BFBDE8F087000080
:10DAD000AC2C002010B5074A14210820FEF71CF8D2
:10DAE000002805D00022BDE810401146FDF744BFD4
:10DAF00010BD0000802F002010B5064CA1692069E0
:10DB0000405CFEF773F9002802D1A169491CA161AC
:10DB100010BD0000842C002010B50B4CA1692069B9
:10DB2000405CC02803D0DB2803D0042010BDDC20DB
:10DB300000E0DD20FEF75AF90028F7D1A169491C61
:10DB4000A1610249A16010BD842C0020F9DA070010
:10DB500010B5C020FEF74AF9002805D103498A69AB
:10DB6000002A01D1024A8A6010BD0000842C0020E6
:10DB7000F9DA070010B5DB20FEF738F9002802D1EA
:10DB8000024A0149916010BD19DB0700842C002076
:10DB900070B510F0FF0009D0012802D0022849D149
:10DBA0004EE0BDE87040012000F0CCB9264C042ABC
:10DBB00022D34B7813F00F0007D00E281CD1BDE8FC
:10DBC000704008461146FFF707BF0878C2188B78E7
:10DBD000C9781944114411F0FF0F4FF000020BD126
:10DBE000C0F3C201207E401C00F00700884203D130
:10DBF000A270032000F0A6F920694FF4167508B151
:10DC0000294613E0104928461031FFF75FF840B16C
:10DC1000042804D0002211461046FDF7ADFE052170
:10DC200002E02946206901E007482C30FFF7A0F800
:10DC3000002807D0BDE8704000221146FDF79CBEC9
:10DC40000521F1E770BD0000AC2C002070B5054641
:10DC50000078104C032804D12078022818D100F055
:10DC600013F92878042813D1E16919B1D4E908021D
:10DC7000824208D3E368002B0AD00748626AC06872
:10DC8000BDE87040184728796168BDE870400847D2
:10DC900070BD0000842C002084E1070010B5084608
:10DCA0001146AFF3008010BD10B521B1002211461E
:10DCB0001046FDF761FEBDE81040FFF71BB90000FC
:10DCC0000021024A0846FDF79DBE0000A9DC0700BE
:10DCD00070B509B18C0701D0072070BD064C012535
:10DCE000A16062800549636010DF0028F5D12570CE
:10DCF00016202EDF70BD0000E02C00209DDC070008
:10DD000018B103490861002070470E2070470000D9
:10DD1000E02C0020FFF77CBDF0B5194C00EBC001F2
:10DD2000A36803EB810521694A1C0AD001EBC106F7
:10DD300003EB86076A687E68B24204D8B21A7A603A
:10DD400029622061F0BD0C4602E00C46316AD21B0C
:10DD50004E1C0DD001EBC10703EB87067768974295
:10DD6000F3D301EBC10603EB86067768BF1A776031
:10DD70006A60296204EBC40103EB81010862F0BD13
:10DD8000282C002070B51C4B1A699C68154611465A
:10DD900007E0814208D00A4601EBC20604EB860187
:10DDA000096A4E1CF5D170BD002EFCD08A420DD1FF
:10DDB00005EBC50004EB8000006A1861401C05D12A
:10DDC0000E4D0120A86000255D61587101EBC10076
:10DDD00004EB800002EBC202416804EB8202006A9D
:10DDE0001062421CDFD000EBC00004EB80004268F0
:10DDF0001144416070BD0000282C0020001001403B
:10DE00002DE9F0411E4C2569681C37D01D480026BD
:10DE100001686069081A20F07F4718E0A16805EBE7
:10DE2000C50001EB80025068B84212D8156AA36998
:10DE30003F1A064443B1D2E90601984738B100229F
:10DE40001146FDF799FD02E0D2E906108847681CEB
:10DE5000E4D1A178E078814206D1401CC0B2E070E4
:10DE6000022801D10020E0700548E1781C3040F81C
:10DE70002160BDE8F0411420FDF7BCBBBDE8F08196
:10DE8000282C00200415014070B5174D174E184C72
:10DE900012E0A1692069415CC02903D0A169405CFE
:10DEA000DB2803D1A068A84200D1A660A068804703
:10DEB000042817D0112815D0A06961698842E8D3D9
:10DEC0000C48A060FFF744FE00280BD10120207011
:10DED000E368002B06D00848A26921690068BDE804
:10DEE0007040184770BD0000F9DA070075DB0700C5
:10DEF000842C002051DB070084E10700064A002043
:10DF0000C2F81C010548038A8168C95C038A5B1C4E
:10DF10000382C2F81C15704700200040D03000205A
:10DF20001FB500218DF8080005488DF800108268A3
:10DF300001928174D0E90012684690471FBD00002D
:10DF4000D030002070B52C4C214625784B6A8DB11D
:10DF50000A46012D116AD2691DD0022D4AD138B36B
:10DF6000022835D0032845D1207E401C00F0070050
:10DF7000A0613AE000283DD11846FDF7C5FE18B172
:10DF800000221146FDF7F8FCA168002932D0A078E4
:10DF9000BDE87040084701282CD11046891DFEF7C6
:10DFA000F5FE18B100221146FDF7E6FC02201DE047
:10DFB00000200246A06244F6DF711846FDF75EFEBF
:10DFC000002817D0BDE8704000221146FDF7D4BCF0
:10DFD000A06A052807D0401CA062BDE8704010462A
:10DFE000891DFEF7D3BE0120A0700020BDE870405F
:10DFF00000F004B870BD0000AC2C0020024908708D
:10E000000020FFF79FBF0000AC2C00201CB5027859
:10E01000124C012A0AD02146022A496818D0002A47
:10E0200015D103208DF8000068460FE004218DF81B
:10E0300000104068012100788DF804000748401C5A
:10E04000FFF774F90120A0706168684688471CBD1D
:10E0500002228DF80020C0680190E5E7002C002026
:10E060000F480068C005C00D13D0103840B200281A
:10E0700006DA00F00F0000F1E02090F8140D03E044
:10E0800000F1E02090F800044009012803D00328A3
:10E0900003D0022070470020704701207047000025
:10E0A00004ED00E042788378521C934200D10022B4
:10E0B0000378934201D1002070470A60416840789C
:10E0C00000EB400001EBC0007047000010B5084CA9
:10E0D00048DF18B100221146FDF74EFCFDF70CFD9C
:10E0E0002078022803D0032801D00428F0D110BDE5
:10E0F0004C2C002002000000000000000000000086
:10E1000000000000060000000800000007000000FA
:10E1100005000000000000000000000000009D005D
:10E1200003000000060000000800000007000000D7
:10E1300005000000000000000000000000009D003D
:10E1400003000000EDD60700000000000000000002
:10E1500002000000000000000000000000000000BD
:10E1600000000000040000000000000000000000AB
:10E17000000000000000000011D7070000000000B0
:10E18000000000000100000000000000000000008E
:10E190000200000000000000000000000806050763
:10E1A0000000000000509D00C8E10700002C002086
:10E1B000F80000002CB90700C0E20700F82C00208E
:10E1C000902A00003CB90700000000000000000099
:10E1D000000000000000000000000000000000003F
:10E1E000000000000000000000000000000000002F
:10E1F000000000000000000000000000000000001F
:10E20000000000000000000000000000000000000E
:10E2100000000000000000000000000000000000FE
:10E2200000000000000000000000000000000000EE
:10E2300000000000000000000000000000000000DE
:10E2400000000000000000000000000000000000CE
:10E2500091CB0700F9DA0700000000000000000081
:10E2600000000000000000000000000000000000AE
:10E27000000000000000000000000000000000009E
:10E28000000000000000000000000000000000008E
:10E29000000000000000000000000000000000007E
:10E2A000000000000000000000000000000000006E
:10E2B0000000000000000000000000000090D003FB
:020000041000EA
:0410140000B0070021
:040000050007B4013B
:00000001FF
